{"contracts/NadVault.sol":{"NadVault":{"abi":[{"anonymous":false,"inputs":[{"indexed":true,"internalType":"uint256","name":"lockId","type":"uint256"},{"indexed":false,"internalType":"address","name":"owner","type":"address"},{"indexed":false,"internalType":"uint256","name":"duration","type":"uint256"},{"indexed":false,"internalType":"string","name":"mediaHash","type":"string"}],"name":"MediaLocked","type":"event"},{"inputs":[],"name":"feeRate","outputs":[{"internalType":"uint256","name":"","type":"uint256"}],"stateMutability":"view","type":"function"},{"inputs":[],"name":"lockCount","outputs":[{"internalType":"uint256","name":"","type":"uint256"}],"stateMutability":"view","type":"function"},{"inputs":[{"internalType":"string","name":"mediaHash","type":"string"},{"internalType":"uint256","name":"durationInMonths","type":"uint256"}],"name":"lockMedia","outputs":[],"stateMutability":"payable","type":"function"},{"inputs":[{"internalType":"uint256","name":"","type":"uint256"}],"name":"locks","outputs":[{"internalType":"address","name":"owner","type":"address"},{"internalType":"string","name":"mediaHash","type":"string"},{"internalType":"uint256","name":"lockTime","type":"uint256"},{"internalType":"uint256","name":"duration","type":"uint256"},{"internalType":"uint256","name":"feePaid","type":"uint256"}],"stateMutability":"view","type":"function"},{"inputs":[{"internalType":"uint256","name":"lockId","type":"uint256"}],"name":"withdrawMedia","outputs":[],"stateMutability":"nonpayable","type":"function"}],"evm":{"bytecode":{"linkReferences":{},"object":"608060405267016345785d8a000060025534801561001c57600080fd5b50610c998061002c6000396000f3fe60806040526004361061004a5760003560e01c8063683ae5371461004f578063978bbdb91461006b5780639b10b6f514610096578063a2ca72c7146100c1578063f4dadc61146100ea575b600080fd5b61006960048036038101906100649190610782565b61012b565b005b34801561007757600080fd5b506100806102b1565b60405161008d91906107ed565b60405180910390f35b3480156100a257600080fd5b506100ab6102b7565b6040516100b891906107ed565b60405180910390f35b3480156100cd57600080fd5b506100e860048036038101906100e39190610808565b6102bd565b005b3480156100f657600080fd5b50610111600480360381019061010c9190610808565b610431565b6040516101229594939291906108fe565b60405180910390f35b60008160025461013b9190610987565b905080341015610180576040517f08c379a000000000000000000000000000000000000000000000000000000000815260040161017790610a2d565b60405180910390fd5b6040518060a001604052803373ffffffffffffffffffffffffffffffffffffffff16815260200184815260200142815260200183815260200134815250600080600154815260200190815260200160002060008201518160000160006101000a81548173ffffffffffffffffffffffffffffffffffffffff021916908373ffffffffffffffffffffffffffffffffffffffff160217905550602082015181600101908051906020019061023492919061050f565b506040820151816002015560608201518160030155608082015181600401559050506001547fcaaf34bded4b603d2b4c7bbaa55dd5e03deba09990d22162351c50467ea8778733848660405161028c93929190610a4d565b60405180910390a2600160008154809291906102a790610a8b565b9190505550505050565b60025481565b60015481565b600080600083815260200190815260200160002090508060000160009054906101000a900473ffffffffffffffffffffffffffffffffffffffff1673ffffffffffffffffffffffffffffffffffffffff163373ffffffffffffffffffffffffffffffffffffffff1614610365576040517f08c379a000000000000000000000000000000000000000000000000000000000815260040161035c90610b20565b60405180910390fd5b62278d0081600301546103789190610987565b81600201546103879190610b40565b4210156103c9576040517f08c379a00000000000000000000000000000000000000000000000000000000081526004016103c090610be2565b60405180910390fd5b600080838152602001908152602001600020600080820160006101000a81549073ffffffffffffffffffffffffffffffffffffffff02191690556001820160006104139190610595565b60028201600090556003820160009055600482016000905550505050565b60006020528060005260406000206000915090508060000160009054906101000a900473ffffffffffffffffffffffffffffffffffffffff169080600101805461047a90610c31565b80601f01602080910402602001604051908101604052809291908181526020018280546104a690610c31565b80156104f35780601f106104c8576101008083540402835291602001916104f3565b820191906000526020600020905b8154815290600101906020018083116104d657829003601f168201915b5050505050908060020154908060030154908060040154905085565b82805461051b90610c31565b90600052602060002090601f01602090048101928261053d5760008555610584565b82601f1061055657805160ff1916838001178555610584565b82800160010185558215610584579182015b82811115610583578251825591602001919060010190610568565b5b50905061059191906105d5565b5090565b5080546105a190610c31565b6000825580601f106105b357506105d2565b601f0160209004906000526020600020908101906105d191906105d5565b5b50565b5b808211156105ee5760008160009055506001016105d6565b5090565b6000604051905090565b600080fd5b600080fd5b600080fd5b600080fd5b6000601f19601f8301169050919050565b7f4e487b7100000000000000000000000000000000000000000000000000000000600052604160045260246000fd5b61065982610610565b810181811067ffffffffffffffff8211171561067857610677610621565b5b80604052505050565b600061068b6105f2565b90506106978282610650565b919050565b600067ffffffffffffffff8211156106b7576106b6610621565b5b6106c082610610565b9050602081019050919050565b82818337600083830152505050565b60006106ef6106ea8461069c565b610681565b90508281526020810184848401111561070b5761070a61060b565b5b6107168482856106cd565b509392505050565b600082601f83011261073357610732610606565b5b81356107438482602086016106dc565b91505092915050565b6000819050919050565b61075f8161074c565b811461076a57600080fd5b50565b60008135905061077c81610756565b92915050565b60008060408385031215610799576107986105fc565b5b600083013567ffffffffffffffff8111156107b7576107b6610601565b5b6107c38582860161071e565b92505060206107d48582860161076d565b9150509250929050565b6107e78161074c565b82525050565b600060208201905061080260008301846107de565b92915050565b60006020828403121561081e5761081d6105fc565b5b600061082c8482850161076d565b91505092915050565b600073ffffffffffffffffffffffffffffffffffffffff82169050919050565b600061086082610835565b9050919050565b61087081610855565b82525050565b600081519050919050565b600082825260208201905092915050565b60005b838110156108b0578082015181840152602081019050610895565b838111156108bf576000848401525b50505050565b60006108d082610876565b6108da8185610881565b93506108ea818560208601610892565b6108f381610610565b840191505092915050565b600060a0820190506109136000830188610867565b818103602083015261092581876108c5565b905061093460408301866107de565b61094160608301856107de565b61094e60808301846107de565b9695505050505050565b7f4e487b7100000000000000000000000000000000000000000000000000000000600052601160045260246000fd5b60006109928261074c565b915061099d8361074c565b9250817fffffffffffffffffffffffffffffffffffffffffffffffffffffffffffffffff04831182151516156109d6576109d5610958565b5b828202905092915050565b7f496e73756666696369656e74206665652070726f766964656400000000000000600082015250565b6000610a17601983610881565b9150610a22826109e1565b602082019050919050565b60006020820190508181036000830152610a4681610a0a565b9050919050565b6000606082019050610a626000830186610867565b610a6f60208301856107de565b8181036040830152610a8181846108c5565b9050949350505050565b6000610a968261074c565b91507fffffffffffffffffffffffffffffffffffffffffffffffffffffffffffffffff821415610ac957610ac8610958565b5b600182019050919050565b7f596f7520617265206e6f7420746865206f776e65720000000000000000000000600082015250565b6000610b0a601583610881565b9150610b1582610ad4565b602082019050919050565b60006020820190508181036000830152610b3981610afd565b9050919050565b6000610b4b8261074c565b9150610b568361074c565b9250827fffffffffffffffffffffffffffffffffffffffffffffffffffffffffffffffff03821115610b8b57610b8a610958565b5b828201905092915050565b7f4c6f636b20706572696f64206e6f742065787069726564000000000000000000600082015250565b6000610bcc601783610881565b9150610bd782610b96565b602082019050919050565b60006020820190508181036000830152610bfb81610bbf565b9050919050565b7f4e487b7100000000000000000000000000000000000000000000000000000000600052602260045260246000fd5b60006002820490506001821680610c4957607f821691505b60208210811415610c5d57610c5c610c02565b5b5091905056fea26469706673582212202155ca74bf5bd156677ccf8161903773abb54572d264570152ac9bb334fc8bcb64736f6c63430008090033","opcodes":"PUSH1 0x80 PUSH1 0x40 MSTORE PUSH8 0x16345785D8A0000 PUSH1 0x2 SSTORE CALLVALUE DUP1 ISZERO PUSH2 0x1C JUMPI PUSH1 0x0 DUP1 REVERT JUMPDEST POP PUSH2 0xC99 DUP1 PUSH2 0x2C PUSH1 0x0 CODECOPY PUSH1 0x0 RETURN INVALID PUSH1 0x80 PUSH1 0x40 MSTORE PUSH1 0x4 CALLDATASIZE LT PUSH2 0x4A JUMPI PUSH1 0x0 CALLDATALOAD PUSH1 0xE0 SHR DUP1 PUSH4 0x683AE537 EQ PUSH2 0x4F JUMPI DUP1 PUSH4 0x978BBDB9 EQ PUSH2 0x6B JUMPI DUP1 PUSH4 0x9B10B6F5 EQ PUSH2 0x96 JUMPI DUP1 PUSH4 0xA2CA72C7 EQ PUSH2 0xC1 JUMPI DUP1 PUSH4 0xF4DADC61 EQ PUSH2 0xEA JUMPI JUMPDEST PUSH1 0x0 DUP1 REVERT JUMPDEST PUSH2 0x69 PUSH1 0x4 DUP1 CALLDATASIZE SUB DUP2 ADD SWAP1 PUSH2 0x64 SWAP2 SWAP1 PUSH2 0x782 JUMP JUMPDEST PUSH2 0x12B JUMP JUMPDEST STOP JUMPDEST CALLVALUE DUP1 ISZERO PUSH2 0x77 JUMPI PUSH1 0x0 DUP1 REVERT JUMPDEST POP PUSH2 0x80 PUSH2 0x2B1 JUMP JUMPDEST PUSH1 0x40 MLOAD PUSH2 0x8D SWAP2 SWAP1 PUSH2 0x7ED JUMP JUMPDEST PUSH1 0x40 MLOAD DUP1 SWAP2 SUB SWAP1 RETURN JUMPDEST CALLVALUE DUP1 ISZERO PUSH2 0xA2 JUMPI PUSH1 0x0 DUP1 REVERT JUMPDEST POP PUSH2 0xAB PUSH2 0x2B7 JUMP JUMPDEST PUSH1 0x40 MLOAD PUSH2 0xB8 SWAP2 SWAP1 PUSH2 0x7ED JUMP JUMPDEST PUSH1 0x40 MLOAD DUP1 SWAP2 SUB SWAP1 RETURN JUMPDEST CALLVALUE DUP1 ISZERO PUSH2 0xCD JUMPI PUSH1 0x0 DUP1 REVERT JUMPDEST POP PUSH2 0xE8 PUSH1 0x4 DUP1 CALLDATASIZE SUB DUP2 ADD SWAP1 PUSH2 0xE3 SWAP2 SWAP1 PUSH2 0x808 JUMP JUMPDEST PUSH2 0x2BD JUMP JUMPDEST STOP JUMPDEST CALLVALUE DUP1 ISZERO PUSH2 0xF6 JUMPI PUSH1 0x0 DUP1 REVERT JUMPDEST POP PUSH2 0x111 PUSH1 0x4 DUP1 CALLDATASIZE SUB DUP2 ADD SWAP1 PUSH2 0x10C SWAP2 SWAP1 PUSH2 0x808 JUMP JUMPDEST PUSH2 0x431 JUMP JUMPDEST PUSH1 0x40 MLOAD PUSH2 0x122 SWAP6 SWAP5 SWAP4 SWAP3 SWAP2 SWAP1 PUSH2 0x8FE JUMP JUMPDEST PUSH1 0x40 MLOAD DUP1 SWAP2 SUB SWAP1 RETURN JUMPDEST PUSH1 0x0 DUP2 PUSH1 0x2 SLOAD PUSH2 0x13B SWAP2 SWAP1 PUSH2 0x987 JUMP JUMPDEST SWAP1 POP DUP1 CALLVALUE LT ISZERO PUSH2 0x180 JUMPI PUSH1 0x40 MLOAD PUSH32 0x8C379A000000000000000000000000000000000000000000000000000000000 DUP2 MSTORE PUSH1 0x4 ADD PUSH2 0x177 SWAP1 PUSH2 0xA2D JUMP JUMPDEST PUSH1 0x40 MLOAD DUP1 SWAP2 SUB SWAP1 REVERT JUMPDEST PUSH1 0x40 MLOAD DUP1 PUSH1 0xA0 ADD PUSH1 0x40 MSTORE DUP1 CALLER PUSH20 0xFFFFFFFFFFFFFFFFFFFFFFFFFFFFFFFFFFFFFFFF AND DUP2 MSTORE PUSH1 0x20 ADD DUP5 DUP2 MSTORE PUSH1 0x20 ADD TIMESTAMP DUP2 MSTORE PUSH1 0x20 ADD DUP4 DUP2 MSTORE PUSH1 0x20 ADD CALLVALUE DUP2 MSTORE POP PUSH1 0x0 DUP1 PUSH1 0x1 SLOAD DUP2 MSTORE PUSH1 0x20 ADD SWAP1 DUP2 MSTORE PUSH1 0x20 ADD PUSH1 0x0 KECCAK256 PUSH1 0x0 DUP3 ADD MLOAD DUP2 PUSH1 0x0 ADD PUSH1 0x0 PUSH2 0x100 EXP DUP2 SLOAD DUP2 PUSH20 0xFFFFFFFFFFFFFFFFFFFFFFFFFFFFFFFFFFFFFFFF MUL NOT AND SWAP1 DUP4 PUSH20 0xFFFFFFFFFFFFFFFFFFFFFFFFFFFFFFFFFFFFFFFF AND MUL OR SWAP1 SSTORE POP PUSH1 0x20 DUP3 ADD MLOAD DUP2 PUSH1 0x1 ADD SWAP1 DUP1 MLOAD SWAP1 PUSH1 0x20 ADD SWAP1 PUSH2 0x234 SWAP3 SWAP2 SWAP1 PUSH2 0x50F JUMP JUMPDEST POP PUSH1 0x40 DUP3 ADD MLOAD DUP2 PUSH1 0x2 ADD SSTORE PUSH1 0x60 DUP3 ADD MLOAD DUP2 PUSH1 0x3 ADD SSTORE PUSH1 0x80 DUP3 ADD MLOAD DUP2 PUSH1 0x4 ADD SSTORE SWAP1 POP POP PUSH1 0x1 SLOAD PUSH32 0xCAAF34BDED4B603D2B4C7BBAA55DD5E03DEBA09990D22162351C50467EA87787 CALLER DUP5 DUP7 PUSH1 0x40 MLOAD PUSH2 0x28C SWAP4 SWAP3 SWAP2 SWAP1 PUSH2 0xA4D JUMP JUMPDEST PUSH1 0x40 MLOAD DUP1 SWAP2 SUB SWAP1 LOG2 PUSH1 0x1 PUSH1 0x0 DUP2 SLOAD DUP1 SWAP3 SWAP2 SWAP1 PUSH2 0x2A7 SWAP1 PUSH2 0xA8B JUMP JUMPDEST SWAP2 SWAP1 POP SSTORE POP POP POP POP JUMP JUMPDEST PUSH1 0x2 SLOAD DUP2 JUMP JUMPDEST PUSH1 0x1 SLOAD DUP2 JUMP JUMPDEST PUSH1 0x0 DUP1 PUSH1 0x0 DUP4 DUP2 MSTORE PUSH1 0x20 ADD SWAP1 DUP2 MSTORE PUSH1 0x20 ADD PUSH1 0x0 KECCAK256 SWAP1 POP DUP1 PUSH1 0x0 ADD PUSH1 0x0 SWAP1 SLOAD SWAP1 PUSH2 0x100 EXP SWAP1 DIV PUSH20 0xFFFFFFFFFFFFFFFFFFFFFFFFFFFFFFFFFFFFFFFF AND PUSH20 0xFFFFFFFFFFFFFFFFFFFFFFFFFFFFFFFFFFFFFFFF AND CALLER PUSH20 0xFFFFFFFFFFFFFFFFFFFFFFFFFFFFFFFFFFFFFFFF AND EQ PUSH2 0x365 JUMPI PUSH1 0x40 MLOAD PUSH32 0x8C379A000000000000000000000000000000000000000000000000000000000 DUP2 MSTORE PUSH1 0x4 ADD PUSH2 0x35C SWAP1 PUSH2 0xB20 JUMP JUMPDEST PUSH1 0x40 MLOAD DUP1 SWAP2 SUB SWAP1 REVERT JUMPDEST PUSH3 0x278D00 DUP2 PUSH1 0x3 ADD SLOAD PUSH2 0x378 SWAP2 SWAP1 PUSH2 0x987 JUMP JUMPDEST DUP2 PUSH1 0x2 ADD SLOAD PUSH2 0x387 SWAP2 SWAP1 PUSH2 0xB40 JUMP JUMPDEST TIMESTAMP LT ISZERO PUSH2 0x3C9 JUMPI PUSH1 0x40 MLOAD PUSH32 0x8C379A000000000000000000000000000000000000000000000000000000000 DUP2 MSTORE PUSH1 0x4 ADD PUSH2 0x3C0 SWAP1 PUSH2 0xBE2 JUMP JUMPDEST PUSH1 0x40 MLOAD DUP1 SWAP2 SUB SWAP1 REVERT JUMPDEST PUSH1 0x0 DUP1 DUP4 DUP2 MSTORE PUSH1 0x20 ADD SWAP1 DUP2 MSTORE PUSH1 0x20 ADD PUSH1 0x0 KECCAK256 PUSH1 0x0 DUP1 DUP3 ADD PUSH1 0x0 PUSH2 0x100 EXP DUP2 SLOAD SWAP1 PUSH20 0xFFFFFFFFFFFFFFFFFFFFFFFFFFFFFFFFFFFFFFFF MUL NOT AND SWAP1 SSTORE PUSH1 0x1 DUP3 ADD PUSH1 0x0 PUSH2 0x413 SWAP2 SWAP1 PUSH2 0x595 JUMP JUMPDEST PUSH1 0x2 DUP3 ADD PUSH1 0x0 SWAP1 SSTORE PUSH1 0x3 DUP3 ADD PUSH1 0x0 SWAP1 SSTORE PUSH1 0x4 DUP3 ADD PUSH1 0x0 SWAP1 SSTORE POP POP POP POP JUMP JUMPDEST PUSH1 0x0 PUSH1 0x20 MSTORE DUP1 PUSH1 0x0 MSTORE PUSH1 0x40 PUSH1 0x0 KECCAK256 PUSH1 0x0 SWAP2 POP SWAP1 POP DUP1 PUSH1 0x0 ADD PUSH1 0x0 SWAP1 SLOAD SWAP1 PUSH2 0x100 EXP SWAP1 DIV PUSH20 0xFFFFFFFFFFFFFFFFFFFFFFFFFFFFFFFFFFFFFFFF AND SWAP1 DUP1 PUSH1 0x1 ADD DUP1 SLOAD PUSH2 0x47A SWAP1 PUSH2 0xC31 JUMP JUMPDEST DUP1 PUSH1 0x1F ADD PUSH1 0x20 DUP1 SWAP2 DIV MUL PUSH1 0x20 ADD PUSH1 0x40 MLOAD SWAP1 DUP2 ADD PUSH1 0x40 MSTORE DUP1 SWAP3 SWAP2 SWAP1 DUP2 DUP2 MSTORE PUSH1 0x20 ADD DUP3 DUP1 SLOAD PUSH2 0x4A6 SWAP1 PUSH2 0xC31 JUMP JUMPDEST DUP1 ISZERO PUSH2 0x4F3 JUMPI DUP1 PUSH1 0x1F LT PUSH2 0x4C8 JUMPI PUSH2 0x100 DUP1 DUP4 SLOAD DIV MUL DUP4 MSTORE SWAP2 PUSH1 0x20 ADD SWAP2 PUSH2 0x4F3 JUMP JUMPDEST DUP3 ADD SWAP2 SWAP1 PUSH1 0x0 MSTORE PUSH1 0x20 PUSH1 0x0 KECCAK256 SWAP1 JUMPDEST DUP2 SLOAD DUP2 MSTORE SWAP1 PUSH1 0x1 ADD SWAP1 PUSH1 0x20 ADD DUP1 DUP4 GT PUSH2 0x4D6 JUMPI DUP3 SWAP1 SUB PUSH1 0x1F AND DUP3 ADD SWAP2 JUMPDEST POP POP POP POP POP SWAP1 DUP1 PUSH1 0x2 ADD SLOAD SWAP1 DUP1 PUSH1 0x3 ADD SLOAD SWAP1 DUP1 PUSH1 0x4 ADD SLOAD SWAP1 POP DUP6 JUMP JUMPDEST DUP3 DUP1 SLOAD PUSH2 0x51B SWAP1 PUSH2 0xC31 JUMP JUMPDEST SWAP1 PUSH1 0x0 MSTORE PUSH1 0x20 PUSH1 0x0 KECCAK256 SWAP1 PUSH1 0x1F ADD PUSH1 0x20 SWAP1 DIV DUP2 ADD SWAP3 DUP3 PUSH2 0x53D JUMPI PUSH1 0x0 DUP6 SSTORE PUSH2 0x584 JUMP JUMPDEST DUP3 PUSH1 0x1F LT PUSH2 0x556 JUMPI DUP1 MLOAD PUSH1 0xFF NOT AND DUP4 DUP1 ADD OR DUP6 SSTORE PUSH2 0x584 JUMP JUMPDEST DUP3 DUP1 ADD PUSH1 0x1 ADD DUP6 SSTORE DUP3 ISZERO PUSH2 0x584 JUMPI SWAP2 DUP3 ADD JUMPDEST DUP3 DUP2 GT ISZERO PUSH2 0x583 JUMPI DUP3 MLOAD DUP3 SSTORE SWAP2 PUSH1 0x20 ADD SWAP2 SWAP1 PUSH1 0x1 ADD SWAP1 PUSH2 0x568 JUMP JUMPDEST JUMPDEST POP SWAP1 POP PUSH2 0x591 SWAP2 SWAP1 PUSH2 0x5D5 JUMP JUMPDEST POP SWAP1 JUMP JUMPDEST POP DUP1 SLOAD PUSH2 0x5A1 SWAP1 PUSH2 0xC31 JUMP JUMPDEST PUSH1 0x0 DUP3 SSTORE DUP1 PUSH1 0x1F LT PUSH2 0x5B3 JUMPI POP PUSH2 0x5D2 JUMP JUMPDEST PUSH1 0x1F ADD PUSH1 0x20 SWAP1 DIV SWAP1 PUSH1 0x0 MSTORE PUSH1 0x20 PUSH1 0x0 KECCAK256 SWAP1 DUP2 ADD SWAP1 PUSH2 0x5D1 SWAP2 SWAP1 PUSH2 0x5D5 JUMP JUMPDEST JUMPDEST POP JUMP JUMPDEST JUMPDEST DUP1 DUP3 GT ISZERO PUSH2 0x5EE JUMPI PUSH1 0x0 DUP2 PUSH1 0x0 SWAP1 SSTORE POP PUSH1 0x1 ADD PUSH2 0x5D6 JUMP JUMPDEST POP SWAP1 JUMP JUMPDEST PUSH1 0x0 PUSH1 0x40 MLOAD SWAP1 POP SWAP1 JUMP JUMPDEST PUSH1 0x0 DUP1 REVERT JUMPDEST PUSH1 0x0 DUP1 REVERT JUMPDEST PUSH1 0x0 DUP1 REVERT JUMPDEST PUSH1 0x0 DUP1 REVERT JUMPDEST PUSH1 0x0 PUSH1 0x1F NOT PUSH1 0x1F DUP4 ADD AND SWAP1 POP SWAP2 SWAP1 POP JUMP JUMPDEST PUSH32 0x4E487B7100000000000000000000000000000000000000000000000000000000 PUSH1 0x0 MSTORE PUSH1 0x41 PUSH1 0x4 MSTORE PUSH1 0x24 PUSH1 0x0 REVERT JUMPDEST PUSH2 0x659 DUP3 PUSH2 0x610 JUMP JUMPDEST DUP2 ADD DUP2 DUP2 LT PUSH8 0xFFFFFFFFFFFFFFFF DUP3 GT OR ISZERO PUSH2 0x678 JUMPI PUSH2 0x677 PUSH2 0x621 JUMP JUMPDEST JUMPDEST DUP1 PUSH1 0x40 MSTORE POP POP POP JUMP JUMPDEST PUSH1 0x0 PUSH2 0x68B PUSH2 0x5F2 JUMP JUMPDEST SWAP1 POP PUSH2 0x697 DUP3 DUP3 PUSH2 0x650 JUMP JUMPDEST SWAP2 SWAP1 POP JUMP JUMPDEST PUSH1 0x0 PUSH8 0xFFFFFFFFFFFFFFFF DUP3 GT ISZERO PUSH2 0x6B7 JUMPI PUSH2 0x6B6 PUSH2 0x621 JUMP JUMPDEST JUMPDEST PUSH2 0x6C0 DUP3 PUSH2 0x610 JUMP JUMPDEST SWAP1 POP PUSH1 0x20 DUP2 ADD SWAP1 POP SWAP2 SWAP1 POP JUMP JUMPDEST DUP3 DUP2 DUP4 CALLDATACOPY PUSH1 0x0 DUP4 DUP4 ADD MSTORE POP POP POP JUMP JUMPDEST PUSH1 0x0 PUSH2 0x6EF PUSH2 0x6EA DUP5 PUSH2 0x69C JUMP JUMPDEST PUSH2 0x681 JUMP JUMPDEST SWAP1 POP DUP3 DUP2 MSTORE PUSH1 0x20 DUP2 ADD DUP5 DUP5 DUP5 ADD GT ISZERO PUSH2 0x70B JUMPI PUSH2 0x70A PUSH2 0x60B JUMP JUMPDEST JUMPDEST PUSH2 0x716 DUP5 DUP3 DUP6 PUSH2 0x6CD JUMP JUMPDEST POP SWAP4 SWAP3 POP POP POP JUMP JUMPDEST PUSH1 0x0 DUP3 PUSH1 0x1F DUP4 ADD SLT PUSH2 0x733 JUMPI PUSH2 0x732 PUSH2 0x606 JUMP JUMPDEST JUMPDEST DUP2 CALLDATALOAD PUSH2 0x743 DUP5 DUP3 PUSH1 0x20 DUP7 ADD PUSH2 0x6DC JUMP JUMPDEST SWAP2 POP POP SWAP3 SWAP2 POP POP JUMP JUMPDEST PUSH1 0x0 DUP2 SWAP1 POP SWAP2 SWAP1 POP JUMP JUMPDEST PUSH2 0x75F DUP2 PUSH2 0x74C JUMP JUMPDEST DUP2 EQ PUSH2 0x76A JUMPI PUSH1 0x0 DUP1 REVERT JUMPDEST POP JUMP JUMPDEST PUSH1 0x0 DUP2 CALLDATALOAD SWAP1 POP PUSH2 0x77C DUP2 PUSH2 0x756 JUMP JUMPDEST SWAP3 SWAP2 POP POP JUMP JUMPDEST PUSH1 0x0 DUP1 PUSH1 0x40 DUP4 DUP6 SUB SLT ISZERO PUSH2 0x799 JUMPI PUSH2 0x798 PUSH2 0x5FC JUMP JUMPDEST JUMPDEST PUSH1 0x0 DUP4 ADD CALLDATALOAD PUSH8 0xFFFFFFFFFFFFFFFF DUP2 GT ISZERO PUSH2 0x7B7 JUMPI PUSH2 0x7B6 PUSH2 0x601 JUMP JUMPDEST JUMPDEST PUSH2 0x7C3 DUP6 DUP3 DUP7 ADD PUSH2 0x71E JUMP JUMPDEST SWAP3 POP POP PUSH1 0x20 PUSH2 0x7D4 DUP6 DUP3 DUP7 ADD PUSH2 0x76D JUMP JUMPDEST SWAP2 POP POP SWAP3 POP SWAP3 SWAP1 POP JUMP JUMPDEST PUSH2 0x7E7 DUP2 PUSH2 0x74C JUMP JUMPDEST DUP3 MSTORE POP POP JUMP JUMPDEST PUSH1 0x0 PUSH1 0x20 DUP3 ADD SWAP1 POP PUSH2 0x802 PUSH1 0x0 DUP4 ADD DUP5 PUSH2 0x7DE JUMP JUMPDEST SWAP3 SWAP2 POP POP JUMP JUMPDEST PUSH1 0x0 PUSH1 0x20 DUP3 DUP5 SUB SLT ISZERO PUSH2 0x81E JUMPI PUSH2 0x81D PUSH2 0x5FC JUMP JUMPDEST JUMPDEST PUSH1 0x0 PUSH2 0x82C DUP5 DUP3 DUP6 ADD PUSH2 0x76D JUMP JUMPDEST SWAP2 POP POP SWAP3 SWAP2 POP POP JUMP JUMPDEST PUSH1 0x0 PUSH20 0xFFFFFFFFFFFFFFFFFFFFFFFFFFFFFFFFFFFFFFFF DUP3 AND SWAP1 POP SWAP2 SWAP1 POP JUMP JUMPDEST PUSH1 0x0 PUSH2 0x860 DUP3 PUSH2 0x835 JUMP JUMPDEST SWAP1 POP SWAP2 SWAP1 POP JUMP JUMPDEST PUSH2 0x870 DUP2 PUSH2 0x855 JUMP JUMPDEST DUP3 MSTORE POP POP JUMP JUMPDEST PUSH1 0x0 DUP2 MLOAD SWAP1 POP SWAP2 SWAP1 POP JUMP JUMPDEST PUSH1 0x0 DUP3 DUP3 MSTORE PUSH1 0x20 DUP3 ADD SWAP1 POP SWAP3 SWAP2 POP POP JUMP JUMPDEST PUSH1 0x0 JUMPDEST DUP4 DUP2 LT ISZERO PUSH2 0x8B0 JUMPI DUP1 DUP3 ADD MLOAD DUP2 DUP5 ADD MSTORE PUSH1 0x20 DUP2 ADD SWAP1 POP PUSH2 0x895 JUMP JUMPDEST DUP4 DUP2 GT ISZERO PUSH2 0x8BF JUMPI PUSH1 0x0 DUP5 DUP5 ADD MSTORE JUMPDEST POP POP POP POP JUMP JUMPDEST PUSH1 0x0 PUSH2 0x8D0 DUP3 PUSH2 0x876 JUMP JUMPDEST PUSH2 0x8DA DUP2 DUP6 PUSH2 0x881 JUMP JUMPDEST SWAP4 POP PUSH2 0x8EA DUP2 DUP6 PUSH1 0x20 DUP7 ADD PUSH2 0x892 JUMP JUMPDEST PUSH2 0x8F3 DUP2 PUSH2 0x610 JUMP JUMPDEST DUP5 ADD SWAP2 POP POP SWAP3 SWAP2 POP POP JUMP JUMPDEST PUSH1 0x0 PUSH1 0xA0 DUP3 ADD SWAP1 POP PUSH2 0x913 PUSH1 0x0 DUP4 ADD DUP9 PUSH2 0x867 JUMP JUMPDEST DUP2 DUP2 SUB PUSH1 0x20 DUP4 ADD MSTORE PUSH2 0x925 DUP2 DUP8 PUSH2 0x8C5 JUMP JUMPDEST SWAP1 POP PUSH2 0x934 PUSH1 0x40 DUP4 ADD DUP7 PUSH2 0x7DE JUMP JUMPDEST PUSH2 0x941 PUSH1 0x60 DUP4 ADD DUP6 PUSH2 0x7DE JUMP JUMPDEST PUSH2 0x94E PUSH1 0x80 DUP4 ADD DUP5 PUSH2 0x7DE JUMP JUMPDEST SWAP7 SWAP6 POP POP POP POP POP POP JUMP JUMPDEST PUSH32 0x4E487B7100000000000000000000000000000000000000000000000000000000 PUSH1 0x0 MSTORE PUSH1 0x11 PUSH1 0x4 MSTORE PUSH1 0x24 PUSH1 0x0 REVERT JUMPDEST PUSH1 0x0 PUSH2 0x992 DUP3 PUSH2 0x74C JUMP JUMPDEST SWAP2 POP PUSH2 0x99D DUP4 PUSH2 0x74C JUMP JUMPDEST SWAP3 POP DUP2 PUSH32 0xFFFFFFFFFFFFFFFFFFFFFFFFFFFFFFFFFFFFFFFFFFFFFFFFFFFFFFFFFFFFFFFF DIV DUP4 GT DUP3 ISZERO ISZERO AND ISZERO PUSH2 0x9D6 JUMPI PUSH2 0x9D5 PUSH2 0x958 JUMP JUMPDEST JUMPDEST DUP3 DUP3 MUL SWAP1 POP SWAP3 SWAP2 POP POP JUMP JUMPDEST PUSH32 0x496E73756666696369656E74206665652070726F766964656400000000000000 PUSH1 0x0 DUP3 ADD MSTORE POP JUMP JUMPDEST PUSH1 0x0 PUSH2 0xA17 PUSH1 0x19 DUP4 PUSH2 0x881 JUMP JUMPDEST SWAP2 POP PUSH2 0xA22 DUP3 PUSH2 0x9E1 JUMP JUMPDEST PUSH1 0x20 DUP3 ADD SWAP1 POP SWAP2 SWAP1 POP JUMP JUMPDEST PUSH1 0x0 PUSH1 0x20 DUP3 ADD SWAP1 POP DUP2 DUP2 SUB PUSH1 0x0 DUP4 ADD MSTORE PUSH2 0xA46 DUP2 PUSH2 0xA0A JUMP JUMPDEST SWAP1 POP SWAP2 SWAP1 POP JUMP JUMPDEST PUSH1 0x0 PUSH1 0x60 DUP3 ADD SWAP1 POP PUSH2 0xA62 PUSH1 0x0 DUP4 ADD DUP7 PUSH2 0x867 JUMP JUMPDEST PUSH2 0xA6F PUSH1 0x20 DUP4 ADD DUP6 PUSH2 0x7DE JUMP JUMPDEST DUP2 DUP2 SUB PUSH1 0x40 DUP4 ADD MSTORE PUSH2 0xA81 DUP2 DUP5 PUSH2 0x8C5 JUMP JUMPDEST SWAP1 POP SWAP5 SWAP4 POP POP POP POP JUMP JUMPDEST PUSH1 0x0 PUSH2 0xA96 DUP3 PUSH2 0x74C JUMP JUMPDEST SWAP2 POP PUSH32 0xFFFFFFFFFFFFFFFFFFFFFFFFFFFFFFFFFFFFFFFFFFFFFFFFFFFFFFFFFFFFFFFF DUP3 EQ ISZERO PUSH2 0xAC9 JUMPI PUSH2 0xAC8 PUSH2 0x958 JUMP JUMPDEST JUMPDEST PUSH1 0x1 DUP3 ADD SWAP1 POP SWAP2 SWAP1 POP JUMP JUMPDEST PUSH32 0x596F7520617265206E6F7420746865206F776E65720000000000000000000000 PUSH1 0x0 DUP3 ADD MSTORE POP JUMP JUMPDEST PUSH1 0x0 PUSH2 0xB0A PUSH1 0x15 DUP4 PUSH2 0x881 JUMP JUMPDEST SWAP2 POP PUSH2 0xB15 DUP3 PUSH2 0xAD4 JUMP JUMPDEST PUSH1 0x20 DUP3 ADD SWAP1 POP SWAP2 SWAP1 POP JUMP JUMPDEST PUSH1 0x0 PUSH1 0x20 DUP3 ADD SWAP1 POP DUP2 DUP2 SUB PUSH1 0x0 DUP4 ADD MSTORE PUSH2 0xB39 DUP2 PUSH2 0xAFD JUMP JUMPDEST SWAP1 POP SWAP2 SWAP1 POP JUMP JUMPDEST PUSH1 0x0 PUSH2 0xB4B DUP3 PUSH2 0x74C JUMP JUMPDEST SWAP2 POP PUSH2 0xB56 DUP4 PUSH2 0x74C JUMP JUMPDEST SWAP3 POP DUP3 PUSH32 0xFFFFFFFFFFFFFFFFFFFFFFFFFFFFFFFFFFFFFFFFFFFFFFFFFFFFFFFFFFFFFFFF SUB DUP3 GT ISZERO PUSH2 0xB8B JUMPI PUSH2 0xB8A PUSH2 0x958 JUMP JUMPDEST JUMPDEST DUP3 DUP3 ADD SWAP1 POP SWAP3 SWAP2 POP POP JUMP JUMPDEST PUSH32 0x4C6F636B20706572696F64206E6F742065787069726564000000000000000000 PUSH1 0x0 DUP3 ADD MSTORE POP JUMP JUMPDEST PUSH1 0x0 PUSH2 0xBCC PUSH1 0x17 DUP4 PUSH2 0x881 JUMP JUMPDEST SWAP2 POP PUSH2 0xBD7 DUP3 PUSH2 0xB96 JUMP JUMPDEST PUSH1 0x20 DUP3 ADD SWAP1 POP SWAP2 SWAP1 POP JUMP JUMPDEST PUSH1 0x0 PUSH1 0x20 DUP3 ADD SWAP1 POP DUP2 DUP2 SUB PUSH1 0x0 DUP4 ADD MSTORE PUSH2 0xBFB DUP2 PUSH2 0xBBF JUMP JUMPDEST SWAP1 POP SWAP2 SWAP1 POP JUMP JUMPDEST PUSH32 0x4E487B7100000000000000000000000000000000000000000000000000000000 PUSH1 0x0 MSTORE PUSH1 0x22 PUSH1 0x4 MSTORE PUSH1 0x24 PUSH1 0x0 REVERT JUMPDEST PUSH1 0x0 PUSH1 0x2 DUP3 DIV SWAP1 POP PUSH1 0x1 DUP3 AND DUP1 PUSH2 0xC49 JUMPI PUSH1 0x7F DUP3 AND SWAP2 POP JUMPDEST PUSH1 0x20 DUP3 LT DUP2 EQ ISZERO PUSH2 0xC5D JUMPI PUSH2 0xC5C PUSH2 0xC02 JUMP JUMPDEST JUMPDEST POP SWAP2 SWAP1 POP JUMP INVALID LOG2 PUSH5 0x6970667358 0x22 SLT KECCAK256 0x21 SSTORE 0xCA PUSH21 0xBF5BD156677CCF8161903773ABB54572D264570152 0xAC SWAP12 0xB3 CALLVALUE 0xFC DUP12 0xCB PUSH5 0x736F6C6343 STOP ADDMOD MULMOD STOP CALLER "},"methodIdentifiers":{"feeRate()":"978bbdb9","lockCount()":"9b10b6f5","lockMedia(string,uint256)":"683ae537","locks(uint256)":"f4dadc61","withdrawMedia(uint256)":"a2ca72c7"}}}}}