{
  "_format": "hh-sol-artifact-1",
  "contractName": "TokenLockup",
  "sourceName": "contracts/TokenLockup.sol",
  "abi": [
    {
      "inputs": [
        {
          "internalType": "address",
          "name": "tokenAddress",
          "type": "address"
        },
        {
          "internalType": "uint256",
          "name": "_yieldRate",
          "type": "uint256"
        }
      ],
      "stateMutability": "nonpayable",
      "type": "constructor"
    },
    {
      "anonymous": false,
      "inputs": [
        {
          "indexed": false,
          "internalType": "uint256",
          "name": "depositId",
          "type": "uint256"
        },
        {
          "indexed": true,
          "internalType": "address",
          "name": "user",
          "type": "address"
        },
        {
          "indexed": false,
          "internalType": "uint256",
          "name": "amount",
          "type": "uint256"
        },
        {
          "indexed": false,
          "internalType": "uint256",
          "name": "lockupEnd",
          "type": "uint256"
        },
        {
          "indexed": false,
          "internalType": "string",
          "name": "note",
          "type": "string"
        }
      ],
      "name": "Deposited",
      "type": "event"
    },
    {
      "anonymous": false,
      "inputs": [
        {
          "indexed": false,
          "internalType": "uint256",
          "name": "depositId",
          "type": "uint256"
        },
        {
          "indexed": true,
          "internalType": "address",
          "name": "user",
          "type": "address"
        },
        {
          "indexed": false,
          "internalType": "uint256",
          "name": "amount",
          "type": "uint256"
        },
        {
          "indexed": false,
          "internalType": "uint256",
          "name": "yield",
          "type": "uint256"
        }
      ],
      "name": "Withdrawn",
      "type": "event"
    },
    {
      "inputs": [
        {
          "internalType": "uint256",
          "name": "amount",
          "type": "uint256"
        },
        {
          "internalType": "uint256",
          "name": "lockupPeriod",
          "type": "uint256"
        },
        {
          "internalType": "string",
          "name": "note",
          "type": "string"
        }
      ],
      "name": "deposit",
      "outputs": [],
      "stateMutability": "nonpayable",
      "type": "function"
    },
    {
      "inputs": [],
      "name": "depositCount",
      "outputs": [
        {
          "internalType": "uint256",
          "name": "",
          "type": "uint256"
        }
      ],
      "stateMutability": "view",
      "type": "function"
    },
    {
      "inputs": [
        {
          "internalType": "uint256",
          "name": "",
          "type": "uint256"
        }
      ],
      "name": "deposits",
      "outputs": [
        {
          "internalType": "address",
          "name": "user",
          "type": "address"
        },
        {
          "internalType": "uint256",
          "name": "amount",
          "type": "uint256"
        },
        {
          "internalType": "uint256",
          "name": "lockupEnd",
          "type": "uint256"
        },
        {
          "internalType": "string",
          "name": "note",
          "type": "string"
        },
        {
          "internalType": "bool",
          "name": "withdrawn",
          "type": "bool"
        }
      ],
      "stateMutability": "view",
      "type": "function"
    },
    {
      "inputs": [],
      "name": "token",
      "outputs": [
        {
          "internalType": "contract IERC20",
          "name": "",
          "type": "address"
        }
      ],
      "stateMutability": "view",
      "type": "function"
    },
    {
      "inputs": [
        {
          "internalType": "uint256",
          "name": "depositId",
          "type": "uint256"
        }
      ],
      "name": "withdraw",
      "outputs": [],
      "stateMutability": "nonpayable",
      "type": "function"
    },
    {
      "inputs": [],
      "name": "yieldRate",
      "outputs": [
        {
          "internalType": "uint256",
          "name": "",
          "type": "uint256"
        }
      ],
      "stateMutability": "view",
      "type": "function"
    }
  ],
  "bytecode": "0x60806040523480156200001157600080fd5b506040516200136d3803806200136d8339818101604052810190620000379190620000b4565b816000806101000a81548173ffffffffffffffffffffffffffffffffffffffff021916908373ffffffffffffffffffffffffffffffffffffffff16021790555080600181905550505062000167565b600081519050620000978162000133565b92915050565b600081519050620000ae816200014d565b92915050565b60008060408385031215620000c857600080fd5b6000620000d88582860162000086565b9250506020620000eb858286016200009d565b9150509250929050565b6000620001028262000109565b9050919050565b600073ffffffffffffffffffffffffffffffffffffffff82169050919050565b6000819050919050565b6200013e81620000f5565b81146200014a57600080fd5b50565b620001588162000129565b81146200016457600080fd5b50565b6111f680620001776000396000f3fe608060405234801561001057600080fd5b50600436106100625760003560e01c80632dfdf0b5146100675780632e1a7d4d146100855780636999ac93146100a1578063b02c43d0146100bf578063fc0c546a146100f3578063fca32ac314610111575b600080fd5b61006f61012d565b60405161007c9190610e2e565b60405180910390f35b61009f600480360381019061009a91906109e2565b610133565b005b6100a9610459565b6040516100b69190610e2e565b60405180910390f35b6100d960048036038101906100d491906109e2565b61045f565b6040516100ea959493929190610cf9565b60405180910390f35b6100fb61054a565b6040516101089190610d53565b60405180910390f35b61012b60048036038101906101269190610a0b565b61056e565b005b60025481565b60006003600083815260200190815260200160002090508060000160009054906101000a900473ffffffffffffffffffffffffffffffffffffffff1673ffffffffffffffffffffffffffffffffffffffff163373ffffffffffffffffffffffffffffffffffffffff16146101dc576040517f08c379a00000000000000000000000000000000000000000000000000000000081526004016101d390610dce565b60405180910390fd5b8060020154421015610223576040517f08c379a000000000000000000000000000000000000000000000000000000000815260040161021a90610e0e565b60405180910390fd5b8060040160009054906101000a900460ff1615610275576040517f08c379a000000000000000000000000000000000000000000000000000000000815260040161026c90610d6e565b60405180910390fd5b6000612710600154836001015461028c9190610f71565b6102969190610f40565b905060008183600101546102aa9190610eea565b905060018360040160006101000a81548160ff02191690831515021790555060008054906101000a900473ffffffffffffffffffffffffffffffffffffffff1673ffffffffffffffffffffffffffffffffffffffff1663a9059cbb8460000160009054906101000a900473ffffffffffffffffffffffffffffffffffffffff16836040518363ffffffff1660e01b8152600401610348929190610cd0565b602060405180830381600087803b15801561036257600080fd5b505af1158015610376573d6000803e3d6000fd5b505050506040513d601f19601f8201168201806040525081019061039a91906109b9565b6103d9576040517f08c379a00000000000000000000000000000000000000000000000000000000081526004016103d090610d8e565b60405180910390fd5b8260000160009054906101000a900473ffffffffffffffffffffffffffffffffffffffff1673ffffffffffffffffffffffffffffffffffffffff167f1c84cc0f96161bdafea718a9094dd21c21d1fb2f9ca2ebb9bd4e39918efbaace8585600101548560405161044b93929190610e49565b60405180910390a250505050565b60015481565b60036020528060005260406000206000915090508060000160009054906101000a900473ffffffffffffffffffffffffffffffffffffffff16908060010154908060020154908060030180546104b490611079565b80601f01602080910402602001604051908101604052809291908181526020018280546104e090611079565b801561052d5780601f106105025761010080835404028352916020019161052d565b820191906000526020600020905b81548152906001019060200180831161051057829003601f168201915b5050505050908060040160009054906101000a900460ff16905085565b60008054906101000a900473ffffffffffffffffffffffffffffffffffffffff1681565b600084116105b1576040517f08c379a00000000000000000000000000000000000000000000000000000000081526004016105a890610dae565b60405180910390fd5b600083116105f4576040517f08c379a00000000000000000000000000000000000000000000000000000000081526004016105eb90610dee565b60405180910390fd5b60008054906101000a900473ffffffffffffffffffffffffffffffffffffffff1673ffffffffffffffffffffffffffffffffffffffff166323b872dd3330876040518463ffffffff1660e01b815260040161065193929190610c99565b602060405180830381600087803b15801561066b57600080fd5b505af115801561067f573d6000803e3d6000fd5b505050506040513d601f19601f820116820180604052508101906106a391906109b9565b6106e2576040517f08c379a00000000000000000000000000000000000000000000000000000000081526004016106d990610d8e565b60405180910390fd5b6040518060a001604052803373ffffffffffffffffffffffffffffffffffffffff168152602001858152602001844261071b9190610eea565b815260200183838080601f016020809104026020016040519081016040528093929190818152602001838380828437600081840152601f19601f8201169050808301925050505050505081526020016000151581525060036000600254815260200190815260200160002060008201518160000160006101000a81548173ffffffffffffffffffffffffffffffffffffffff021916908373ffffffffffffffffffffffffffffffffffffffff160217905550602082015181600101556040820151816002015560608201518160030190805190602001906107fd9291906108a2565b5060808201518160040160006101000a81548160ff0219169083151502179055509050503373ffffffffffffffffffffffffffffffffffffffff167f7f2879f23f11c9761fc04192cc8b975099bd5fb18f341be3cf1f01e0813aff026002548686426108699190610eea565b868660405161087c959493929190610e80565b60405180910390a260026000815480929190610897906110ab565b919050555050505050565b8280546108ae90611079565b90600052602060002090601f0160209004810192826108d05760008555610917565b82601f106108e957805160ff1916838001178555610917565b82800160010185558215610917579182015b828111156109165782518255916020019190600101906108fb565b5b5090506109249190610928565b5090565b5b80821115610941576000816000905550600101610929565b5090565b60008151905061095481611192565b92915050565b60008083601f84011261096c57600080fd5b8235905067ffffffffffffffff81111561098557600080fd5b60208301915083600182028301111561099d57600080fd5b9250929050565b6000813590506109b3816111a9565b92915050565b6000602082840312156109cb57600080fd5b60006109d984828501610945565b91505092915050565b6000602082840312156109f457600080fd5b6000610a02848285016109a4565b91505092915050565b60008060008060608587031215610a2157600080fd5b6000610a2f878288016109a4565b9450506020610a40878288016109a4565b935050604085013567ffffffffffffffff811115610a5d57600080fd5b610a698782880161095a565b925092505092959194509250565b610a8081610fcb565b82525050565b610a8f81610fdd565b82525050565b610a9e81611013565b82525050565b6000610ab08385610ed9565b9350610abd838584611037565b610ac683611181565b840190509392505050565b6000610adc82610ece565b610ae68185610ed9565b9350610af6818560208601611046565b610aff81611181565b840191505092915050565b6000610b17601183610ed9565b91507f416c72656164792077697468647261776e0000000000000000000000000000006000830152602082019050919050565b6000610b57601583610ed9565b91507f546f6b656e207472616e73666572206661696c656400000000000000000000006000830152602082019050919050565b6000610b97601e83610ed9565b91507f4465706f736974206d7573742062652067726561746572207468616e203000006000830152602082019050919050565b6000610bd7601183610ed9565b91507f4e6f74206465706f736974206f776e65720000000000000000000000000000006000830152602082019050919050565b6000610c17601983610ed9565b91507f4c6f636b757020706572696f64206d757374206265203e2030000000000000006000830152602082019050919050565b6000610c57601783610ed9565b91507f4c6f636b757020706572696f64206e6f7420656e6465640000000000000000006000830152602082019050919050565b610c9381611009565b82525050565b6000606082019050610cae6000830186610a77565b610cbb6020830185610a77565b610cc86040830184610c8a565b949350505050565b6000604082019050610ce56000830185610a77565b610cf26020830184610c8a565b9392505050565b600060a082019050610d0e6000830188610a77565b610d1b6020830187610c8a565b610d286040830186610c8a565b8181036060830152610d3a8185610ad1565b9050610d496080830184610a86565b9695505050505050565b6000602082019050610d686000830184610a95565b92915050565b60006020820190508181036000830152610d8781610b0a565b9050919050565b60006020820190508181036000830152610da781610b4a565b9050919050565b60006020820190508181036000830152610dc781610b8a565b9050919050565b60006020820190508181036000830152610de781610bca565b9050919050565b60006020820190508181036000830152610e0781610c0a565b9050919050565b60006020820190508181036000830152610e2781610c4a565b9050919050565b6000602082019050610e436000830184610c8a565b92915050565b6000606082019050610e5e6000830186610c8a565b610e6b6020830185610c8a565b610e786040830184610c8a565b949350505050565b6000608082019050610e956000830188610c8a565b610ea26020830187610c8a565b610eaf6040830186610c8a565b8181036060830152610ec2818486610aa4565b90509695505050505050565b600081519050919050565b600082825260208201905092915050565b6000610ef582611009565b9150610f0083611009565b9250827fffffffffffffffffffffffffffffffffffffffffffffffffffffffffffffffff03821115610f3557610f346110f4565b5b828201905092915050565b6000610f4b82611009565b9150610f5683611009565b925082610f6657610f65611123565b5b828204905092915050565b6000610f7c82611009565b9150610f8783611009565b9250817fffffffffffffffffffffffffffffffffffffffffffffffffffffffffffffffff0483118215151615610fc057610fbf6110f4565b5b828202905092915050565b6000610fd682610fe9565b9050919050565b60008115159050919050565b600073ffffffffffffffffffffffffffffffffffffffff82169050919050565b6000819050919050565b600061101e82611025565b9050919050565b600061103082610fe9565b9050919050565b82818337600083830152505050565b60005b83811015611064578082015181840152602081019050611049565b83811115611073576000848401525b50505050565b6000600282049050600182168061109157607f821691505b602082108114156110a5576110a4611152565b5b50919050565b60006110b682611009565b91507fffffffffffffffffffffffffffffffffffffffffffffffffffffffffffffffff8214156110e9576110e86110f4565b5b600182019050919050565b7f4e487b7100000000000000000000000000000000000000000000000000000000600052601160045260246000fd5b7f4e487b7100000000000000000000000000000000000000000000000000000000600052601260045260246000fd5b7f4e487b7100000000000000000000000000000000000000000000000000000000600052602260045260246000fd5b6000601f19601f8301169050919050565b61119b81610fdd565b81146111a657600080fd5b50565b6111b281611009565b81146111bd57600080fd5b5056fea26469706673582212204591204a969b53bded2a7a6c7f5af924e902e9eb18c112472cb8f5bb2926f84564736f6c63430008000033",
  "linkReferences": {},
  "deployedLinkReferences": {}
}