{
  "_format": "hh-sol-artifact-1",
  "contractName": "TimeLockVault",
  "sourceName": "contracts/TimeLockVault.sol",
  "abi": [
    {
      "inputs": [],
      "stateMutability": "nonpayable",
      "type": "constructor"
    },
    {
      "anonymous": false,
      "inputs": [
        {
          "indexed": true,
          "internalType": "uint256",
          "name": "vaultId",
          "type": "uint256"
        },
        {
          "indexed": true,
          "internalType": "address",
          "name": "owner",
          "type": "address"
        },
        {
          "indexed": false,
          "internalType": "string",
          "name": "note",
          "type": "string"
        }
      ],
      "name": "MemoryAdded",
      "type": "event"
    },
    {
      "anonymous": false,
      "inputs": [
        {
          "indexed": true,
          "internalType": "address",
          "name": "previousOwner",
          "type": "address"
        },
        {
          "indexed": true,
          "internalType": "address",
          "name": "newOwner",
          "type": "address"
        }
      ],
      "name": "OwnershipTransferred",
      "type": "event"
    },
    {
      "anonymous": false,
      "inputs": [
        {
          "indexed": true,
          "internalType": "address",
          "name": "user",
          "type": "address"
        },
        {
          "indexed": false,
          "internalType": "uint256",
          "name": "amount",
          "type": "uint256"
        }
      ],
      "name": "SubscriptionPaid",
      "type": "event"
    },
    {
      "anonymous": false,
      "inputs": [
        {
          "indexed": true,
          "internalType": "uint256",
          "name": "vaultId",
          "type": "uint256"
        },
        {
          "indexed": true,
          "internalType": "address",
          "name": "owner",
          "type": "address"
        },
        {
          "indexed": false,
          "internalType": "uint256",
          "name": "amount",
          "type": "uint256"
        }
      ],
      "name": "VaultCreated",
      "type": "event"
    },
    {
      "anonymous": false,
      "inputs": [
        {
          "indexed": true,
          "internalType": "uint256",
          "name": "vaultId",
          "type": "uint256"
        },
        {
          "indexed": true,
          "internalType": "address",
          "name": "owner",
          "type": "address"
        },
        {
          "indexed": false,
          "internalType": "uint256",
          "name": "amount",
          "type": "uint256"
        }
      ],
      "name": "VaultUnlocked",
      "type": "event"
    },
    {
      "inputs": [
        {
          "internalType": "uint256",
          "name": "_vaultId",
          "type": "uint256"
        },
        {
          "internalType": "string",
          "name": "_note",
          "type": "string"
        },
        {
          "internalType": "string",
          "name": "_imageURI",
          "type": "string"
        }
      ],
      "name": "addMemory",
      "outputs": [],
      "stateMutability": "nonpayable",
      "type": "function"
    },
    {
      "inputs": [
        {
          "internalType": "address",
          "name": "_token",
          "type": "address"
        },
        {
          "internalType": "uint256",
          "name": "_amount",
          "type": "uint256"
        },
        {
          "internalType": "uint256",
          "name": "_lockDuration",
          "type": "uint256"
        },
        {
          "internalType": "uint256",
          "name": "_yieldRate",
          "type": "uint256"
        },
        {
          "internalType": "string",
          "name": "_memoryURI",
          "type": "string"
        }
      ],
      "name": "createVault",
      "outputs": [
        {
          "internalType": "uint256",
          "name": "",
          "type": "uint256"
        }
      ],
      "stateMutability": "nonpayable",
      "type": "function"
    },
    {
      "inputs": [
        {
          "internalType": "address",
          "name": "_user",
          "type": "address"
        }
      ],
      "name": "getSubscriptionFee",
      "outputs": [
        {
          "internalType": "uint256",
          "name": "",
          "type": "uint256"
        }
      ],
      "stateMutability": "view",
      "type": "function"
    },
    {
      "inputs": [
        {
          "internalType": "address",
          "name": "_user",
          "type": "address"
        }
      ],
      "name": "getUserVaults",
      "outputs": [
        {
          "internalType": "uint256[]",
          "name": "",
          "type": "uint256[]"
        }
      ],
      "stateMutability": "view",
      "type": "function"
    },
    {
      "inputs": [
        {
          "internalType": "uint256",
          "name": "_vaultId",
          "type": "uint256"
        }
      ],
      "name": "getVaultDetails",
      "outputs": [
        {
          "internalType": "address",
          "name": "owner",
          "type": "address"
        },
        {
          "internalType": "address",
          "name": "token",
          "type": "address"
        },
        {
          "internalType": "uint256",
          "name": "amount",
          "type": "uint256"
        },
        {
          "internalType": "uint256",
          "name": "lockTime",
          "type": "uint256"
        },
        {
          "internalType": "uint256",
          "name": "unlockTime",
          "type": "uint256"
        },
        {
          "internalType": "uint256",
          "name": "yieldRate",
          "type": "uint256"
        },
        {
          "internalType": "string",
          "name": "memoryURI",
          "type": "string"
        },
        {
          "internalType": "bool",
          "name": "active",
          "type": "bool"
        }
      ],
      "stateMutability": "view",
      "type": "function"
    },
    {
      "inputs": [
        {
          "internalType": "uint256",
          "name": "_vaultId",
          "type": "uint256"
        }
      ],
      "name": "getVaultMemories",
      "outputs": [
        {
          "components": [
            {
              "internalType": "string",
              "name": "note",
              "type": "string"
            },
            {
              "internalType": "string",
              "name": "imageURI",
              "type": "string"
            },
            {
              "internalType": "uint256",
              "name": "timestamp",
              "type": "uint256"
            }
          ],
          "internalType": "struct TimeLockVault.Memory[]",
          "name": "",
          "type": "tuple[]"
        }
      ],
      "stateMutability": "view",
      "type": "function"
    },
    {
      "inputs": [],
      "name": "owner",
      "outputs": [
        {
          "internalType": "address",
          "name": "",
          "type": "address"
        }
      ],
      "stateMutability": "view",
      "type": "function"
    },
    {
      "inputs": [],
      "name": "paySubscription",
      "outputs": [],
      "stateMutability": "payable",
      "type": "function"
    },
    {
      "inputs": [],
      "name": "renounceOwnership",
      "outputs": [],
      "stateMutability": "nonpayable",
      "type": "function"
    },
    {
      "inputs": [
        {
          "internalType": "address",
          "name": "",
          "type": "address"
        }
      ],
      "name": "subscriptionFees",
      "outputs": [
        {
          "internalType": "uint256",
          "name": "",
          "type": "uint256"
        }
      ],
      "stateMutability": "view",
      "type": "function"
    },
    {
      "inputs": [
        {
          "internalType": "address",
          "name": "newOwner",
          "type": "address"
        }
      ],
      "name": "transferOwnership",
      "outputs": [],
      "stateMutability": "nonpayable",
      "type": "function"
    },
    {
      "inputs": [
        {
          "internalType": "uint256",
          "name": "_vaultId",
          "type": "uint256"
        }
      ],
      "name": "unlockVault",
      "outputs": [],
      "stateMutability": "nonpayable",
      "type": "function"
    },
    {
      "inputs": [
        {
          "internalType": "address",
          "name": "",
          "type": "address"
        },
        {
          "internalType": "uint256",
          "name": "",
          "type": "uint256"
        }
      ],
      "name": "userVaults",
      "outputs": [
        {
          "internalType": "uint256",
          "name": "",
          "type": "uint256"
        }
      ],
      "stateMutability": "view",
      "type": "function"
    },
    {
      "inputs": [
        {
          "internalType": "uint256",
          "name": "",
          "type": "uint256"
        },
        {
          "internalType": "uint256",
          "name": "",
          "type": "uint256"
        }
      ],
      "name": "vaultMemories",
      "outputs": [
        {
          "internalType": "string",
          "name": "note",
          "type": "string"
        },
        {
          "internalType": "string",
          "name": "imageURI",
          "type": "string"
        },
        {
          "internalType": "uint256",
          "name": "timestamp",
          "type": "uint256"
        }
      ],
      "stateMutability": "view",
      "type": "function"
    },
    {
      "inputs": [
        {
          "internalType": "uint256",
          "name": "",
          "type": "uint256"
        }
      ],
      "name": "vaults",
      "outputs": [
        {
          "internalType": "uint256",
          "name": "id",
          "type": "uint256"
        },
        {
          "internalType": "address",
          "name": "owner",
          "type": "address"
        },
        {
          "internalType": "address",
          "name": "token",
          "type": "address"
        },
        {
          "internalType": "uint256",
          "name": "amount",
          "type": "uint256"
        },
        {
          "internalType": "uint256",
          "name": "lockTime",
          "type": "uint256"
        },
        {
          "internalType": "uint256",
          "name": "unlockTime",
          "type": "uint256"
        },
        {
          "internalType": "uint256",
          "name": "yieldRate",
          "type": "uint256"
        },
        {
          "internalType": "string",
          "name": "memoryURI",
          "type": "string"
        },
        {
          "internalType": "bool",
          "name": "active",
          "type": "bool"
        }
      ],
      "stateMutability": "view",
      "type": "function"
    }
  ],
  "bytecode": "0x60806040523480156200001157600080fd5b5062000032620000266200003f60201b60201c565b6200004760201b60201c565b600180819055506200010b565b600033905090565b60008060009054906101000a900473ffffffffffffffffffffffffffffffffffffffff169050816000806101000a81548173ffffffffffffffffffffffffffffffffffffffff021916908373ffffffffffffffffffffffffffffffffffffffff1602179055508173ffffffffffffffffffffffffffffffffffffffff168173ffffffffffffffffffffffffffffffffffffffff167f8be0079c531659141344cd1fd0a4f28419497f9722a3daafe3b4186f6b6457e060405160405180910390a35050565b61285a806200011b6000396000f3fe6080604052600436106100e85760003560e01c80638da5cb5b1161008a578063c0b579c011610059578063c0b579c014610303578063e7f3c69c14610347578063f2fde38b14610384578063f912d6d8146103ad576100e8565b80638da5cb5b1461025457806397e18d6e1461027f5780639c841fef14610289578063bd34d7b9146102c6576100e8565b806357aa6f49116100c657806357aa6f49146101a6578063715018a6146101cf57806376e0b6a7146101e65780638c64ea4a1461020f576100e8565b80630194424c146100ed5780631bb634071461012a57806354b7a2fa14610167575b600080fd5b3480156100f957600080fd5b50610114600480360381019061010f9190611853565b6103ea565b6040516101219190611899565b60405180910390f35b34801561013657600080fd5b50610151600480360381019061014c91906118e0565b610402565b60405161015e9190611ace565b60405180910390f35b34801561017357600080fd5b5061018e60048036038101906101899190611af0565b6105a2565b60405161019d93929190611b7a565b60405180910390f35b3480156101b257600080fd5b506101cd60048036038101906101c891906118e0565b6106f9565b005b3480156101db57600080fd5b506101e4610a8d565b005b3480156101f257600080fd5b5061020d60048036038101906102089190611cf4565b610aa1565b005b34801561021b57600080fd5b50610236600480360381019061023191906118e0565b610c99565b60405161024b99989796959493929190611da9565b60405180910390f35b34801561026057600080fd5b50610269610dbc565b6040516102769190611e3d565b60405180910390f35b610287610de5565b005b34801561029557600080fd5b506102b060048036038101906102ab9190611e58565b610ece565b6040516102bd9190611899565b60405180910390f35b3480156102d257600080fd5b506102ed60048036038101906102e89190611e98565b610eff565b6040516102fa9190611899565b60405180910390f35b34801561030f57600080fd5b5061032a600480360381019061032591906118e0565b6112d4565b60405161033e989796959493929190611f2f565b60405180910390f35b34801561035357600080fd5b5061036e60048036038101906103699190611853565b611413565b60405161037b9190612063565b60405180910390f35b34801561039057600080fd5b506103ab60048036038101906103a69190611853565b6114aa565b005b3480156103b957600080fd5b506103d460048036038101906103cf9190611853565b61152e565b6040516103e19190611899565b60405180910390f35b60066020528060005260406000206000915090505481565b606060046000838152602001908152602001600020805480602002602001604051908101604052809291908181526020016000905b82821015610597578382906000526020600020906003020160405180606001604052908160008201805461046a906120b4565b80601f0160208091040260200160405190810160405280929190818152602001828054610496906120b4565b80156104e35780601f106104b8576101008083540402835291602001916104e3565b820191906000526020600020905b8154815290600101906020018083116104c657829003601f168201915b505050505081526020016001820180546104fc906120b4565b80601f0160208091040260200160405190810160405280929190818152602001828054610528906120b4565b80156105755780601f1061054a57610100808354040283529160200191610575565b820191906000526020600020905b81548152906001019060200180831161055857829003601f168201915b5050505050815260200160028201548152505081526020019060010190610437565b505050509050919050565b600460205281600052604060002081815481106105be57600080fd5b9060005260206000209060030201600091509150508060000180546105e2906120b4565b80601f016020809104026020016040519081016040528092919081815260200182805461060e906120b4565b801561065b5780601f106106305761010080835404028352916020019161065b565b820191906000526020600020905b81548152906001019060200180831161063e57829003601f168201915b505050505090806001018054610670906120b4565b80601f016020809104026020016040519081016040528092919081815260200182805461069c906120b4565b80156106e95780601f106106be576101008083540402835291602001916106e9565b820191906000526020600020905b8154815290600101906020018083116106cc57829003601f168201915b5050505050908060020154905083565b610701611577565b60006003600083815260200190815260200160002090503373ffffffffffffffffffffffffffffffffffffffff168160010160009054906101000a900473ffffffffffffffffffffffffffffffffffffffff1673ffffffffffffffffffffffffffffffffffffffff16146107aa576040517f08c379a00000000000000000000000000000000000000000000000000000000081526004016107a190612132565b60405180910390fd5b8060080160009054906101000a900460ff166107fb576040517f08c379a00000000000000000000000000000000000000000000000000000000081526004016107f29061219e565b60405180910390fd5b8060050154421015610842576040517f08c379a00000000000000000000000000000000000000000000000000000000081526004016108399061220a565b60405180910390fd5b662386f26fc10000600660003373ffffffffffffffffffffffffffffffffffffffff1673ffffffffffffffffffffffffffffffffffffffff1681526020019081526020016000205410156108cb576040517f08c379a00000000000000000000000000000000000000000000000000000000081526004016108c290612276565b60405180910390fd5b6000612710826006015483600301546108e491906122c5565b6108ee919061234e565b90506000818360030154610902919061237f565b9050662386f26fc10000600660003373ffffffffffffffffffffffffffffffffffffffff1673ffffffffffffffffffffffffffffffffffffffff168152602001908152602001600020600082825461095a91906123d5565b9250508190555060008360080160006101000a81548160ff0219169083151502179055508260020160009054906101000a900473ffffffffffffffffffffffffffffffffffffffff1673ffffffffffffffffffffffffffffffffffffffff1663a9059cbb33836040518363ffffffff1660e01b81526004016109dd929190612409565b602060405180830381600087803b1580156109f757600080fd5b505af1158015610a0b573d6000803e3d6000fd5b505050506040513d601f19601f82011682018060405250810190610a2f919061245e565b503373ffffffffffffffffffffffffffffffffffffffff16847fc8ee545e5b582cef6b0ab3ab5a84dc33bd22cc3ae4fc4b86d4004f1ddf88b74883604051610a779190611899565b60405180910390a3505050610a8a6115c7565b50565b610a956115d0565b610a9f600061164e565b565b3373ffffffffffffffffffffffffffffffffffffffff166003600085815260200190815260200160002060010160009054906101000a900473ffffffffffffffffffffffffffffffffffffffff1673ffffffffffffffffffffffffffffffffffffffff1614610b45576040517f08c379a0000000000000000000000000000000000000000000000000000000008152600401610b3c90612132565b60405180910390fd5b6003600084815260200190815260200160002060080160009054906101000a900460ff16610ba8576040517f08c379a0000000000000000000000000000000000000000000000000000000008152600401610b9f9061219e565b60405180910390fd5b6004600084815260200190815260200160002060405180606001604052808481526020018381526020014281525090806001815401808255809150506001900390600052602060002090600302016000909190919091506000820151816000019080519060200190610c1b92919061173e565b506020820151816001019080519060200190610c3892919061173e565b506040820151816002015550503373ffffffffffffffffffffffffffffffffffffffff16837f1f422456b118af6165461b677e699e39b1c94c3c7585d6d62278fc6daaa9114a84604051610c8c919061248b565b60405180910390a3505050565b60036020528060005260406000206000915090508060000154908060010160009054906101000a900473ffffffffffffffffffffffffffffffffffffffff16908060020160009054906101000a900473ffffffffffffffffffffffffffffffffffffffff1690806003015490806004015490806005015490806006015490806007018054610d26906120b4565b80601f0160208091040260200160405190810160405280929190818152602001828054610d52906120b4565b8015610d9f5780601f10610d7457610100808354040283529160200191610d9f565b820191906000526020600020905b815481529060010190602001808311610d8257829003601f168201915b5050505050908060080160009054906101000a900460ff16905089565b60008060009054906101000a900473ffffffffffffffffffffffffffffffffffffffff16905090565b60003411610e28576040517f08c379a0000000000000000000000000000000000000000000000000000000008152600401610e1f906124f9565b60405180910390fd5b34600660003373ffffffffffffffffffffffffffffffffffffffff1673ffffffffffffffffffffffffffffffffffffffff1681526020019081526020016000206000828254610e77919061237f565b925050819055503373ffffffffffffffffffffffffffffffffffffffff167f933b45663ad96e847d50499c3cbce55133a62ad2bced2d654becdc785c6d2bb534604051610ec49190611899565b60405180910390a2565b60056020528160005260406000208181548110610eea57600080fd5b90600052602060002001600091509150505481565b6000610f09611577565b60008511610f4c576040517f08c379a0000000000000000000000000000000000000000000000000000000008152600401610f4390612565565b60405180910390fd5b60008411610f8f576040517f08c379a0000000000000000000000000000000000000000000000000000000008152600401610f86906125f7565b60405180910390fd5b611388831115610fd4576040517f08c379a0000000000000000000000000000000000000000000000000000000008152600401610fcb90612663565b60405180910390fd5b8573ffffffffffffffffffffffffffffffffffffffff166323b872dd3330886040518463ffffffff1660e01b815260040161101193929190612683565b602060405180830381600087803b15801561102b57600080fd5b505af115801561103f573d6000803e3d6000fd5b505050506040513d601f19601f82011682018060405250810190611063919061245e565b5061106e6002611712565b600061107a6002611728565b90506040518061012001604052808281526020013373ffffffffffffffffffffffffffffffffffffffff1681526020018873ffffffffffffffffffffffffffffffffffffffff16815260200187815260200142815260200186426110de919061237f565b815260200185815260200184815260200160011515815250600360008381526020019081526020016000206000820151816000015560208201518160010160006101000a81548173ffffffffffffffffffffffffffffffffffffffff021916908373ffffffffffffffffffffffffffffffffffffffff16021790555060408201518160020160006101000a81548173ffffffffffffffffffffffffffffffffffffffff021916908373ffffffffffffffffffffffffffffffffffffffff160217905550606082015181600301556080820151816004015560a0820151816005015560c0820151816006015560e08201518160070190805190602001906111e592919061173e565b506101008201518160080160006101000a81548160ff021916908315150217905550905050600560003373ffffffffffffffffffffffffffffffffffffffff1673ffffffffffffffffffffffffffffffffffffffff1681526020019081526020016000208190806001815401808255809150506001900390600052602060002001600090919091909150553373ffffffffffffffffffffffffffffffffffffffff16817f03df5debf149a655d99b46048402562ab27f668db5dc618f6c4dc92e3a6d1012886040516112b79190611899565b60405180910390a3809150506112cb6115c7565b95945050505050565b6000806000806000806060600080600360008b815260200190815260200160002090508060010160009054906101000a900473ffffffffffffffffffffffffffffffffffffffff168160020160009054906101000a900473ffffffffffffffffffffffffffffffffffffffff168260030154836004015484600501548560060154866007018760080160009054906101000a900460ff16818054611377906120b4565b80601f01602080910402602001604051908101604052809291908181526020018280546113a3906120b4565b80156113f05780601f106113c5576101008083540402835291602001916113f0565b820191906000526020600020905b8154815290600101906020018083116113d357829003601f168201915b505050505091509850985098509850985098509850985050919395975091939597565b6060600560008373ffffffffffffffffffffffffffffffffffffffff1673ffffffffffffffffffffffffffffffffffffffff16815260200190815260200160002080548060200260200160405190810160405280929190818152602001828054801561149e57602002820191906000526020600020905b81548152602001906001019080831161148a575b50505050509050919050565b6114b26115d0565b600073ffffffffffffffffffffffffffffffffffffffff168173ffffffffffffffffffffffffffffffffffffffff161415611522576040517f08c379a00000000000000000000000000000000000000000000000000000000081526004016115199061272c565b60405180910390fd5b61152b8161164e565b50565b6000600660008373ffffffffffffffffffffffffffffffffffffffff1673ffffffffffffffffffffffffffffffffffffffff168152602001908152602001600020549050919050565b600260015414156115bd576040517f08c379a00000000000000000000000000000000000000000000000000000000081526004016115b490612798565b60405180910390fd5b6002600181905550565b60018081905550565b6115d8611736565b73ffffffffffffffffffffffffffffffffffffffff166115f6610dbc565b73ffffffffffffffffffffffffffffffffffffffff161461164c576040517f08c379a000000000000000000000000000000000000000000000000000000000815260040161164390612804565b60405180910390fd5b565b60008060009054906101000a900473ffffffffffffffffffffffffffffffffffffffff169050816000806101000a81548173ffffffffffffffffffffffffffffffffffffffff021916908373ffffffffffffffffffffffffffffffffffffffff1602179055508173ffffffffffffffffffffffffffffffffffffffff168173ffffffffffffffffffffffffffffffffffffffff167f8be0079c531659141344cd1fd0a4f28419497f9722a3daafe3b4186f6b6457e060405160405180910390a35050565b6001816000016000828254019250508190555050565b600081600001549050919050565b600033905090565b82805461174a906120b4565b90600052602060002090601f01602090048101928261176c57600085556117b3565b82601f1061178557805160ff19168380011785556117b3565b828001600101855582156117b3579182015b828111156117b2578251825591602001919060010190611797565b5b5090506117c091906117c4565b5090565b5b808211156117dd5760008160009055506001016117c5565b5090565b6000604051905090565b600080fd5b600080fd5b600073ffffffffffffffffffffffffffffffffffffffff82169050919050565b6000611820826117f5565b9050919050565b61183081611815565b811461183b57600080fd5b50565b60008135905061184d81611827565b92915050565b600060208284031215611869576118686117eb565b5b60006118778482850161183e565b91505092915050565b6000819050919050565b61189381611880565b82525050565b60006020820190506118ae600083018461188a565b92915050565b6118bd81611880565b81146118c857600080fd5b50565b6000813590506118da816118b4565b92915050565b6000602082840312156118f6576118f56117eb565b5b6000611904848285016118cb565b91505092915050565b600081519050919050565b600082825260208201905092915050565b6000819050602082019050919050565b600081519050919050565b600082825260208201905092915050565b60005b83811015611973578082015181840152602081019050611958565b83811115611982576000848401525b50505050565b6000601f19601f8301169050919050565b60006119a482611939565b6119ae8185611944565b93506119be818560208601611955565b6119c781611988565b840191505092915050565b6119db81611880565b82525050565b600060608301600083015184820360008601526119fe8282611999565b91505060208301518482036020860152611a188282611999565b9150506040830151611a2d60408601826119d2565b508091505092915050565b6000611a4483836119e1565b905092915050565b6000602082019050919050565b6000611a648261190d565b611a6e8185611918565b935083602082028501611a8085611929565b8060005b85811015611abc5784840389528151611a9d8582611a38565b9450611aa883611a4c565b925060208a01995050600181019050611a84565b50829750879550505050505092915050565b60006020820190508181036000830152611ae88184611a59565b905092915050565b60008060408385031215611b0757611b066117eb565b5b6000611b15858286016118cb565b9250506020611b26858286016118cb565b9150509250929050565b600082825260208201905092915050565b6000611b4c82611939565b611b568185611b30565b9350611b66818560208601611955565b611b6f81611988565b840191505092915050565b60006060820190508181036000830152611b948186611b41565b90508181036020830152611ba88185611b41565b9050611bb7604083018461188a565b949350505050565b600080fd5b600080fd5b7f4e487b7100000000000000000000000000000000000000000000000000000000600052604160045260246000fd5b611c0182611988565b810181811067ffffffffffffffff82111715611c2057611c1f611bc9565b5b80604052505050565b6000611c336117e1565b9050611c3f8282611bf8565b919050565b600067ffffffffffffffff821115611c5f57611c5e611bc9565b5b611c6882611988565b9050602081019050919050565b82818337600083830152505050565b6000611c97611c9284611c44565b611c29565b905082815260208101848484011115611cb357611cb2611bc4565b5b611cbe848285611c75565b509392505050565b600082601f830112611cdb57611cda611bbf565b5b8135611ceb848260208601611c84565b91505092915050565b600080600060608486031215611d0d57611d0c6117eb565b5b6000611d1b868287016118cb565b935050602084013567ffffffffffffffff811115611d3c57611d3b6117f0565b5b611d4886828701611cc6565b925050604084013567ffffffffffffffff811115611d6957611d686117f0565b5b611d7586828701611cc6565b9150509250925092565b611d8881611815565b82525050565b60008115159050919050565b611da381611d8e565b82525050565b600061012082019050611dbf600083018c61188a565b611dcc602083018b611d7f565b611dd9604083018a611d7f565b611de6606083018961188a565b611df3608083018861188a565b611e0060a083018761188a565b611e0d60c083018661188a565b81810360e0830152611e1f8185611b41565b9050611e2f610100830184611d9a565b9a9950505050505050505050565b6000602082019050611e526000830184611d7f565b92915050565b60008060408385031215611e6f57611e6e6117eb565b5b6000611e7d8582860161183e565b9250506020611e8e858286016118cb565b9150509250929050565b600080600080600060a08688031215611eb457611eb36117eb565b5b6000611ec28882890161183e565b9550506020611ed3888289016118cb565b9450506040611ee4888289016118cb565b9350506060611ef5888289016118cb565b925050608086013567ffffffffffffffff811115611f1657611f156117f0565b5b611f2288828901611cc6565b9150509295509295909350565b600061010082019050611f45600083018b611d7f565b611f52602083018a611d7f565b611f5f604083018961188a565b611f6c606083018861188a565b611f79608083018761188a565b611f8660a083018661188a565b81810360c0830152611f988185611b41565b9050611fa760e0830184611d9a565b9998505050505050505050565b600081519050919050565b600082825260208201905092915050565b6000819050602082019050919050565b6000611fec83836119d2565b60208301905092915050565b6000602082019050919050565b600061201082611fb4565b61201a8185611fbf565b935061202583611fd0565b8060005b8381101561205657815161203d8882611fe0565b975061204883611ff8565b925050600181019050612029565b5085935050505092915050565b6000602082019050818103600083015261207d8184612005565b905092915050565b7f4e487b7100000000000000000000000000000000000000000000000000000000600052602260045260246000fd5b600060028204905060018216806120cc57607f821691505b602082108114156120e0576120df612085565b5b50919050565b7f4e6f74207661756c74206f776e65720000000000000000000000000000000000600082015250565b600061211c600f83611b30565b9150612127826120e6565b602082019050919050565b6000602082019050818103600083015261214b8161210f565b9050919050565b7f5661756c74206e6f742061637469766500000000000000000000000000000000600082015250565b6000612188601083611b30565b915061219382612152565b602082019050919050565b600060208201905081810360008301526121b78161217b565b9050919050565b7f4c6f636b20706572696f64206e6f742065787069726564000000000000000000600082015250565b60006121f4601783611b30565b91506121ff826121be565b602082019050919050565b60006020820190508181036000830152612223816121e7565b9050919050565b7f496e73756666696369656e7420737562736372697074696f6e20666565000000600082015250565b6000612260601d83611b30565b915061226b8261222a565b602082019050919050565b6000602082019050818103600083015261228f81612253565b9050919050565b7f4e487b7100000000000000000000000000000000000000000000000000000000600052601160045260246000fd5b60006122d082611880565b91506122db83611880565b9250817fffffffffffffffffffffffffffffffffffffffffffffffffffffffffffffffff048311821515161561231457612313612296565b5b828202905092915050565b7f4e487b7100000000000000000000000000000000000000000000000000000000600052601260045260246000fd5b600061235982611880565b915061236483611880565b9250826123745761237361231f565b5b828204905092915050565b600061238a82611880565b915061239583611880565b9250827fffffffffffffffffffffffffffffffffffffffffffffffffffffffffffffffff038211156123ca576123c9612296565b5b828201905092915050565b60006123e082611880565b91506123eb83611880565b9250828210156123fe576123fd612296565b5b828203905092915050565b600060408201905061241e6000830185611d7f565b61242b602083018461188a565b9392505050565b61243b81611d8e565b811461244657600080fd5b50565b60008151905061245881612432565b92915050565b600060208284031215612474576124736117eb565b5b600061248284828501612449565b91505092915050565b600060208201905081810360008301526124a58184611b41565b905092915050565b7f5061796d656e74206d7573742062652067726561746572207468616e20300000600082015250565b60006124e3601e83611b30565b91506124ee826124ad565b602082019050919050565b60006020820190508181036000830152612512816124d6565b9050919050565b7f416d6f756e74206d7573742062652067726561746572207468616e2030000000600082015250565b600061254f601d83611b30565b915061255a82612519565b602082019050919050565b6000602082019050818103600083015261257e81612542565b9050919050565b7f4c6f636b206475726174696f6e206d757374206265206772656174657220746860008201527f616e203000000000000000000000000000000000000000000000000000000000602082015250565b60006125e1602483611b30565b91506125ec82612585565b604082019050919050565b60006020820190508181036000830152612610816125d4565b9050919050565b7f5969656c6420726174652063616e6e6f74206578636565642035302500000000600082015250565b600061264d601c83611b30565b915061265882612617565b602082019050919050565b6000602082019050818103600083015261267c81612640565b9050919050565b60006060820190506126986000830186611d7f565b6126a56020830185611d7f565b6126b2604083018461188a565b949350505050565b7f4f776e61626c653a206e6577206f776e657220697320746865207a65726f206160008201527f6464726573730000000000000000000000000000000000000000000000000000602082015250565b6000612716602683611b30565b9150612721826126ba565b604082019050919050565b6000602082019050818103600083015261274581612709565b9050919050565b7f5265656e7472616e637947756172643a207265656e7472616e742063616c6c00600082015250565b6000612782601f83611b30565b915061278d8261274c565b602082019050919050565b600060208201905081810360008301526127b181612775565b9050919050565b7f4f776e61626c653a2063616c6c6572206973206e6f7420746865206f776e6572600082015250565b60006127ee602083611b30565b91506127f9826127b8565b602082019050919050565b6000602082019050818103600083015261281d816127e1565b905091905056fea26469706673582212200e84c129c4533643f22e67a6d5291d9ec8ebd88518792c5bf79e07b2f159233664736f6c63430008090033",
  "linkReferences": {},
  "deployedLinkReferences": {}
}