{
  "_format": "hh-sol-artifact-1",
  "contractName": "MysteryBoxLaunchpad",
  "sourceName": "contracts/MysteryBoxLaunchpad.sol",
  "abi": [
    {
      "inputs": [],
      "stateMutability": "nonpayable",
      "type": "constructor"
    },
    {
      "anonymous": false,
      "inputs": [
        {
          "indexed": true,
          "internalType": "address",
          "name": "owner",
          "type": "address"
        },
        {
          "indexed": true,
          "internalType": "address",
          "name": "approved",
          "type": "address"
        },
        {
          "indexed": true,
          "internalType": "uint256",
          "name": "tokenId",
          "type": "uint256"
        }
      ],
      "name": "Approval",
      "type": "event"
    },
    {
      "anonymous": false,
      "inputs": [
        {
          "indexed": true,
          "internalType": "address",
          "name": "owner",
          "type": "address"
        },
        {
          "indexed": true,
          "internalType": "address",
          "name": "operator",
          "type": "address"
        },
        {
          "indexed": false,
          "internalType": "bool",
          "name": "approved",
          "type": "bool"
        }
      ],
      "name": "ApprovalForAll",
      "type": "event"
    },
    {
      "anonymous": false,
      "inputs": [
        {
          "indexed": true,
          "internalType": "uint256",
          "name": "boxId",
          "type": "uint256"
        },
        {
          "indexed": true,
          "internalType": "address",
          "name": "winner",
          "type": "address"
        },
        {
          "indexed": false,
          "internalType": "uint256",
          "name": "amount",
          "type": "uint256"
        }
      ],
      "name": "AuctionEnded",
      "type": "event"
    },
    {
      "anonymous": false,
      "inputs": [
        {
          "indexed": false,
          "internalType": "uint256",
          "name": "_fromTokenId",
          "type": "uint256"
        },
        {
          "indexed": false,
          "internalType": "uint256",
          "name": "_toTokenId",
          "type": "uint256"
        }
      ],
      "name": "BatchMetadataUpdate",
      "type": "event"
    },
    {
      "anonymous": false,
      "inputs": [
        {
          "indexed": true,
          "internalType": "uint256",
          "name": "boxId",
          "type": "uint256"
        },
        {
          "indexed": true,
          "internalType": "address",
          "name": "bidder",
          "type": "address"
        },
        {
          "indexed": false,
          "internalType": "uint256",
          "name": "amount",
          "type": "uint256"
        }
      ],
      "name": "BidPlaced",
      "type": "event"
    },
    {
      "anonymous": false,
      "inputs": [
        {
          "indexed": false,
          "internalType": "uint256",
          "name": "_tokenId",
          "type": "uint256"
        }
      ],
      "name": "MetadataUpdate",
      "type": "event"
    },
    {
      "anonymous": false,
      "inputs": [
        {
          "indexed": true,
          "internalType": "uint256",
          "name": "boxId",
          "type": "uint256"
        },
        {
          "indexed": true,
          "internalType": "address",
          "name": "creator",
          "type": "address"
        },
        {
          "indexed": false,
          "internalType": "uint256",
          "name": "floorPrice",
          "type": "uint256"
        }
      ],
      "name": "MysteryBoxCreated",
      "type": "event"
    },
    {
      "anonymous": false,
      "inputs": [
        {
          "indexed": true,
          "internalType": "address",
          "name": "previousOwner",
          "type": "address"
        },
        {
          "indexed": true,
          "internalType": "address",
          "name": "newOwner",
          "type": "address"
        }
      ],
      "name": "OwnershipTransferred",
      "type": "event"
    },
    {
      "anonymous": false,
      "inputs": [
        {
          "indexed": true,
          "internalType": "uint256",
          "name": "boxId",
          "type": "uint256"
        },
        {
          "indexed": true,
          "internalType": "uint256",
          "name": "tokenId",
          "type": "uint256"
        },
        {
          "indexed": true,
          "internalType": "address",
          "name": "owner",
          "type": "address"
        }
      ],
      "name": "TokenMinted",
      "type": "event"
    },
    {
      "anonymous": false,
      "inputs": [
        {
          "indexed": true,
          "internalType": "address",
          "name": "from",
          "type": "address"
        },
        {
          "indexed": true,
          "internalType": "address",
          "name": "to",
          "type": "address"
        },
        {
          "indexed": true,
          "internalType": "uint256",
          "name": "tokenId",
          "type": "uint256"
        }
      ],
      "name": "Transfer",
      "type": "event"
    },
    {
      "inputs": [
        {
          "internalType": "address",
          "name": "to",
          "type": "address"
        },
        {
          "internalType": "uint256",
          "name": "tokenId",
          "type": "uint256"
        }
      ],
      "name": "approve",
      "outputs": [],
      "stateMutability": "nonpayable",
      "type": "function"
    },
    {
      "inputs": [
        {
          "internalType": "uint256",
          "name": "",
          "type": "uint256"
        }
      ],
      "name": "auctions",
      "outputs": [
        {
          "internalType": "uint256",
          "name": "boxId",
          "type": "uint256"
        },
        {
          "internalType": "address",
          "name": "highestBidder",
          "type": "address"
        },
        {
          "internalType": "uint256",
          "name": "highestBid",
          "type": "uint256"
        },
        {
          "internalType": "bool",
          "name": "ended",
          "type": "bool"
        }
      ],
      "stateMutability": "view",
      "type": "function"
    },
    {
      "inputs": [
        {
          "internalType": "address",
          "name": "owner",
          "type": "address"
        }
      ],
      "name": "balanceOf",
      "outputs": [
        {
          "internalType": "uint256",
          "name": "",
          "type": "uint256"
        }
      ],
      "stateMutability": "view",
      "type": "function"
    },
    {
      "inputs": [
        {
          "internalType": "uint256",
          "name": "_floorPrice",
          "type": "uint256"
        },
        {
          "internalType": "uint256",
          "name": "_duration",
          "type": "uint256"
        },
        {
          "internalType": "uint256",
          "name": "_totalSupply",
          "type": "uint256"
        },
        {
          "internalType": "string",
          "name": "_metadataURI",
          "type": "string"
        }
      ],
      "name": "createMysteryBox",
      "outputs": [
        {
          "internalType": "uint256",
          "name": "",
          "type": "uint256"
        }
      ],
      "stateMutability": "nonpayable",
      "type": "function"
    },
    {
      "inputs": [
        {
          "internalType": "uint256",
          "name": "_boxId",
          "type": "uint256"
        }
      ],
      "name": "endAuction",
      "outputs": [],
      "stateMutability": "nonpayable",
      "type": "function"
    },
    {
      "inputs": [],
      "name": "getActiveBoxes",
      "outputs": [
        {
          "internalType": "uint256[]",
          "name": "",
          "type": "uint256[]"
        }
      ],
      "stateMutability": "view",
      "type": "function"
    },
    {
      "inputs": [
        {
          "internalType": "uint256",
          "name": "tokenId",
          "type": "uint256"
        }
      ],
      "name": "getApproved",
      "outputs": [
        {
          "internalType": "address",
          "name": "",
          "type": "address"
        }
      ],
      "stateMutability": "view",
      "type": "function"
    },
    {
      "inputs": [
        {
          "internalType": "address",
          "name": "_user",
          "type": "address"
        }
      ],
      "name": "getUserCollection",
      "outputs": [
        {
          "internalType": "uint256[]",
          "name": "",
          "type": "uint256[]"
        }
      ],
      "stateMutability": "view",
      "type": "function"
    },
    {
      "inputs": [
        {
          "internalType": "address",
          "name": "owner",
          "type": "address"
        },
        {
          "internalType": "address",
          "name": "operator",
          "type": "address"
        }
      ],
      "name": "isApprovedForAll",
      "outputs": [
        {
          "internalType": "bool",
          "name": "",
          "type": "bool"
        }
      ],
      "stateMutability": "view",
      "type": "function"
    },
    {
      "inputs": [
        {
          "internalType": "uint256",
          "name": "",
          "type": "uint256"
        }
      ],
      "name": "mysteryBoxes",
      "outputs": [
        {
          "internalType": "uint256",
          "name": "id",
          "type": "uint256"
        },
        {
          "internalType": "address",
          "name": "creator",
          "type": "address"
        },
        {
          "internalType": "uint256",
          "name": "floorPrice",
          "type": "uint256"
        },
        {
          "internalType": "uint256",
          "name": "startTime",
          "type": "uint256"
        },
        {
          "internalType": "uint256",
          "name": "endTime",
          "type": "uint256"
        },
        {
          "internalType": "uint256",
          "name": "totalSupply",
          "type": "uint256"
        },
        {
          "internalType": "uint256",
          "name": "remainingSupply",
          "type": "uint256"
        },
        {
          "internalType": "string",
          "name": "metadataURI",
          "type": "string"
        },
        {
          "internalType": "bool",
          "name": "active",
          "type": "bool"
        }
      ],
      "stateMutability": "view",
      "type": "function"
    },
    {
      "inputs": [],
      "name": "name",
      "outputs": [
        {
          "internalType": "string",
          "name": "",
          "type": "string"
        }
      ],
      "stateMutability": "view",
      "type": "function"
    },
    {
      "inputs": [],
      "name": "owner",
      "outputs": [
        {
          "internalType": "address",
          "name": "",
          "type": "address"
        }
      ],
      "stateMutability": "view",
      "type": "function"
    },
    {
      "inputs": [
        {
          "internalType": "uint256",
          "name": "tokenId",
          "type": "uint256"
        }
      ],
      "name": "ownerOf",
      "outputs": [
        {
          "internalType": "address",
          "name": "",
          "type": "address"
        }
      ],
      "stateMutability": "view",
      "type": "function"
    },
    {
      "inputs": [
        {
          "internalType": "uint256",
          "name": "_boxId",
          "type": "uint256"
        }
      ],
      "name": "placeBid",
      "outputs": [],
      "stateMutability": "payable",
      "type": "function"
    },
    {
      "inputs": [],
      "name": "renounceOwnership",
      "outputs": [],
      "stateMutability": "nonpayable",
      "type": "function"
    },
    {
      "inputs": [
        {
          "internalType": "address",
          "name": "from",
          "type": "address"
        },
        {
          "internalType": "address",
          "name": "to",
          "type": "address"
        },
        {
          "internalType": "uint256",
          "name": "tokenId",
          "type": "uint256"
        }
      ],
      "name": "safeTransferFrom",
      "outputs": [],
      "stateMutability": "nonpayable",
      "type": "function"
    },
    {
      "inputs": [
        {
          "internalType": "address",
          "name": "from",
          "type": "address"
        },
        {
          "internalType": "address",
          "name": "to",
          "type": "address"
        },
        {
          "internalType": "uint256",
          "name": "tokenId",
          "type": "uint256"
        },
        {
          "internalType": "bytes",
          "name": "data",
          "type": "bytes"
        }
      ],
      "name": "safeTransferFrom",
      "outputs": [],
      "stateMutability": "nonpayable",
      "type": "function"
    },
    {
      "inputs": [
        {
          "internalType": "address",
          "name": "operator",
          "type": "address"
        },
        {
          "internalType": "bool",
          "name": "approved",
          "type": "bool"
        }
      ],
      "name": "setApprovalForAll",
      "outputs": [],
      "stateMutability": "nonpayable",
      "type": "function"
    },
    {
      "inputs": [
        {
          "internalType": "bytes4",
          "name": "interfaceId",
          "type": "bytes4"
        }
      ],
      "name": "supportsInterface",
      "outputs": [
        {
          "internalType": "bool",
          "name": "",
          "type": "bool"
        }
      ],
      "stateMutability": "view",
      "type": "function"
    },
    {
      "inputs": [],
      "name": "symbol",
      "outputs": [
        {
          "internalType": "string",
          "name": "",
          "type": "string"
        }
      ],
      "stateMutability": "view",
      "type": "function"
    },
    {
      "inputs": [
        {
          "internalType": "uint256",
          "name": "tokenId",
          "type": "uint256"
        }
      ],
      "name": "tokenURI",
      "outputs": [
        {
          "internalType": "string",
          "name": "",
          "type": "string"
        }
      ],
      "stateMutability": "view",
      "type": "function"
    },
    {
      "inputs": [
        {
          "internalType": "address",
          "name": "from",
          "type": "address"
        },
        {
          "internalType": "address",
          "name": "to",
          "type": "address"
        },
        {
          "internalType": "uint256",
          "name": "tokenId",
          "type": "uint256"
        }
      ],
      "name": "transferFrom",
      "outputs": [],
      "stateMutability": "nonpayable",
      "type": "function"
    },
    {
      "inputs": [
        {
          "internalType": "address",
          "name": "newOwner",
          "type": "address"
        }
      ],
      "name": "transferOwnership",
      "outputs": [],
      "stateMutability": "nonpayable",
      "type": "function"
    },
    {
      "inputs": [
        {
          "internalType": "address",
          "name": "",
          "type": "address"
        },
        {
          "internalType": "uint256",
          "name": "",
          "type": "uint256"
        }
      ],
      "name": "userCollections",
      "outputs": [
        {
          "internalType": "uint256",
          "name": "",
          "type": "uint256"
        }
      ],
      "stateMutability": "view",
      "type": "function"
    }
  ],
  "bytecode": "0x60806040523480156200001157600080fd5b506040518060400160405280601481526020017f4e61645661756c74204d79737465727920426f780000000000000000000000008152506040518060400160405280600581526020017f4e56424f58000000000000000000000000000000000000000000000000000000815250816000908051906020019062000096929190620001ae565b508060019080519060200190620000af929190620001ae565b505050620000d2620000c6620000e060201b60201c565b620000e860201b60201c565b6001600881905550620002c3565b600033905090565b6000600760009054906101000a900473ffffffffffffffffffffffffffffffffffffffff16905081600760006101000a81548173ffffffffffffffffffffffffffffffffffffffff021916908373ffffffffffffffffffffffffffffffffffffffff1602179055508173ffffffffffffffffffffffffffffffffffffffff168173ffffffffffffffffffffffffffffffffffffffff167f8be0079c531659141344cd1fd0a4f28419497f9722a3daafe3b4186f6b6457e060405160405180910390a35050565b828054620001bc906200028d565b90600052602060002090601f016020900481019282620001e057600085556200022c565b82601f10620001fb57805160ff19168380011785556200022c565b828001600101855582156200022c579182015b828111156200022b5782518255916020019190600101906200020e565b5b5090506200023b91906200023f565b5090565b5b808211156200025a57600081600090555060010162000240565b5090565b7f4e487b7100000000000000000000000000000000000000000000000000000000600052602260045260246000fd5b60006002820490506001821680620002a657607f821691505b60208210811415620002bd57620002bc6200025e565b5b50919050565b61457b80620002d36000396000f3fe60806040526004361061014b5760003560e01c8063715018a6116100b6578063b88d4fde1161006f578063b88d4fde146104c6578063b9a2de3a146104ef578063c555f8d414610518578063c87b56dd14610555578063e985e9c514610592578063f2fde38b146105cf5761014b565b8063715018a6146103e957806387b54b17146104005780638da5cb5b1461042b57806395d89b41146104565780639979ef4514610481578063a22cb4651461049d5761014b565b806342842e0e1161010857806342842e0e1461028c578063428a6171146102b5578063571a26a0146102f25780636352211e146103325780636afb138f1461036f57806370a08231146103ac5761014b565b806301ffc9a71461015057806306fdde031461018d578063081812fc146101b8578063095ea7b3146101f55780631c6a7ac31461021e57806323b872dd14610263575b600080fd5b34801561015c57600080fd5b5061017760048036038101906101729190612e05565b6105f8565b6040516101849190612e4d565b60405180910390f35b34801561019957600080fd5b506101a2610659565b6040516101af9190612f01565b60405180910390f35b3480156101c457600080fd5b506101df60048036038101906101da9190612f59565b6106eb565b6040516101ec9190612fc7565b60405180910390f35b34801561020157600080fd5b5061021c6004803603810190610217919061300e565b610731565b005b34801561022a57600080fd5b5061024560048036038101906102409190612f59565b610849565b60405161025a9998979695949392919061305d565b60405180910390f35b34801561026f57600080fd5b5061028a600480360381019061028591906130f1565b61094c565b005b34801561029857600080fd5b506102b360048036038101906102ae91906130f1565b6109ac565b005b3480156102c157600080fd5b506102dc60048036038101906102d7919061300e565b6109cc565b6040516102e99190613144565b60405180910390f35b3480156102fe57600080fd5b5061031960048036038101906103149190612f59565b6109fd565b604051610329949392919061315f565b60405180910390f35b34801561033e57600080fd5b5061035960048036038101906103549190612f59565b610a5a565b6040516103669190612fc7565b60405180910390f35b34801561037b57600080fd5b50610396600480360381019061039191906132d9565b610ae1565b6040516103a39190613144565b60405180910390f35b3480156103b857600080fd5b506103d360048036038101906103ce919061335c565b610e26565b6040516103e09190613144565b60405180910390f35b3480156103f557600080fd5b506103fe610ede565b005b34801561040c57600080fd5b50610415610ef2565b6040516104229190613447565b60405180910390f35b34801561043757600080fd5b50610440611032565b60405161044d9190612fc7565b60405180910390f35b34801561046257600080fd5b5061046b61105c565b6040516104789190612f01565b60405180910390f35b61049b60048036038101906104969190612f59565b6110ee565b005b3480156104a957600080fd5b506104c460048036038101906104bf9190613495565b6113b9565b005b3480156104d257600080fd5b506104ed60048036038101906104e89190613576565b6113cf565b005b3480156104fb57600080fd5b5061051660048036038101906105119190612f59565b611431565b005b34801561052457600080fd5b5061053f600480360381019061053a919061335c565b61190b565b60405161054c9190613447565b60405180910390f35b34801561056157600080fd5b5061057c60048036038101906105779190612f59565b6119a2565b6040516105899190612f01565b60405180910390f35b34801561059e57600080fd5b506105b960048036038101906105b491906135f9565b611ab5565b6040516105c69190612e4d565b60405180910390f35b3480156105db57600080fd5b506105f660048036038101906105f1919061335c565b611b49565b005b6000634906490660e01b7bffffffffffffffffffffffffffffffffffffffffffffffffffffffff1916827bffffffffffffffffffffffffffffffffffffffffffffffffffffffff19161480610652575061065182611bcd565b5b9050919050565b60606000805461066890613668565b80601f016020809104026020016040519081016040528092919081815260200182805461069490613668565b80156106e15780601f106106b6576101008083540402835291602001916106e1565b820191906000526020600020905b8154815290600101906020018083116106c457829003601f168201915b5050505050905090565b60006106f682611caf565b6004600083815260200190815260200160002060009054906101000a900473ffffffffffffffffffffffffffffffffffffffff169050919050565b600061073c82610a5a565b90508073ffffffffffffffffffffffffffffffffffffffff168373ffffffffffffffffffffffffffffffffffffffff1614156107ad576040517f08c379a00000000000000000000000000000000000000000000000000000000081526004016107a49061370c565b60405180910390fd5b8073ffffffffffffffffffffffffffffffffffffffff166107cc611cfa565b73ffffffffffffffffffffffffffffffffffffffff1614806107fb57506107fa816107f5611cfa565b611ab5565b5b61083a576040517f08c379a00000000000000000000000000000000000000000000000000000000081526004016108319061379e565b60405180910390fd5b6108448383611d02565b505050565b600b6020528060005260406000206000915090508060000154908060010160009054906101000a900473ffffffffffffffffffffffffffffffffffffffff16908060020154908060030154908060040154908060050154908060060154908060070180546108b690613668565b80601f01602080910402602001604051908101604052809291908181526020018280546108e290613668565b801561092f5780601f106109045761010080835404028352916020019161092f565b820191906000526020600020905b81548152906001019060200180831161091257829003601f168201915b5050505050908060080160009054906101000a900460ff16905089565b61095d610957611cfa565b82611dbb565b61099c576040517f08c379a000000000000000000000000000000000000000000000000000000000815260040161099390613830565b60405180910390fd5b6109a7838383611e50565b505050565b6109c7838383604051806020016040528060008152506113cf565b505050565b600d60205281600052604060002081815481106109e857600080fd5b90600052602060002001600091509150505481565b600c6020528060005260406000206000915090508060000154908060010160009054906101000a900473ffffffffffffffffffffffffffffffffffffffff16908060020154908060030160009054906101000a900460ff16905084565b600080610a668361214a565b9050600073ffffffffffffffffffffffffffffffffffffffff168173ffffffffffffffffffffffffffffffffffffffff161415610ad8576040517f08c379a0000000000000000000000000000000000000000000000000000000008152600401610acf9061389c565b60405180910390fd5b80915050919050565b6000808511610b25576040517f08c379a0000000000000000000000000000000000000000000000000000000008152600401610b1c9061392e565b60405180910390fd5b60008411610b68576040517f08c379a0000000000000000000000000000000000000000000000000000000008152600401610b5f9061399a565b60405180910390fd5b60008311610bab576040517f08c379a0000000000000000000000000000000000000000000000000000000008152600401610ba290613a06565b60405180910390fd5b610bb56009612187565b6000610bc1600961219d565b90506040518061012001604052808281526020013373ffffffffffffffffffffffffffffffffffffffff1681526020018781526020014281526020018642610c099190613a55565b815260200185815260200185815260200184815260200160011515815250600b60008381526020019081526020016000206000820151816000015560208201518160010160006101000a81548173ffffffffffffffffffffffffffffffffffffffff021916908373ffffffffffffffffffffffffffffffffffffffff16021790555060408201518160020155606082015181600301556080820151816004015560a0820151816005015560c0820151816006015560e0820151816007019080519060200190610cd9929190612cf6565b506101008201518160080160006101000a81548160ff0219169083151502179055509050506040518060800160405280828152602001600073ffffffffffffffffffffffffffffffffffffffff1681526020016000815260200160001515815250600c60008381526020019081526020016000206000820151816000015560208201518160010160006101000a81548173ffffffffffffffffffffffffffffffffffffffff021916908373ffffffffffffffffffffffffffffffffffffffff1602179055506040820151816002015560608201518160030160006101000a81548160ff0219169083151502179055509050503373ffffffffffffffffffffffffffffffffffffffff16817f4153c12aae94810f9a26ce38033915885c5b4f0bea0344ab65b50aba2c3ffb4f88604051610e129190613144565b60405180910390a380915050949350505050565b60008073ffffffffffffffffffffffffffffffffffffffff168273ffffffffffffffffffffffffffffffffffffffff161415610e97576040517f08c379a0000000000000000000000000000000000000000000000000000000008152600401610e8e90613b1d565b60405180910390fd5b600360008373ffffffffffffffffffffffffffffffffffffffff1673ffffffffffffffffffffffffffffffffffffffff168152602001908152602001600020549050919050565b610ee66121ab565b610ef06000612229565b565b6060600080600190505b610f06600961219d565b8111610f5757600b600082815260200190815260200160002060080160009054906101000a900460ff1615610f44578180610f4090613b3d565b9250505b8080610f4f90613b3d565b915050610efc565b5060008167ffffffffffffffff811115610f7457610f736131ae565b5b604051908082528060200260200182016040528015610fa25781602001602082028036833780820191505090505b509050600080600190505b610fb7600961219d565b811161102857600b600082815260200190815260200160002060080160009054906101000a900460ff16156110155780838381518110610ffa57610ff9613b86565b5b602002602001018181525050818061101190613b3d565b9250505b808061102090613b3d565b915050610fad565b5081935050505090565b6000600760009054906101000a900473ffffffffffffffffffffffffffffffffffffffff16905090565b60606001805461106b90613668565b80601f016020809104026020016040519081016040528092919081815260200182805461109790613668565b80156110e45780601f106110b9576101008083540402835291602001916110e4565b820191906000526020600020905b8154815290600101906020018083116110c757829003601f168201915b5050505050905090565b6110f66122ef565b6000600b600083815260200190815260200160002090506000600c600084815260200190815260200160002090508160080160009054906101000a900460ff16611175576040517f08c379a000000000000000000000000000000000000000000000000000000000815260040161116c90613c01565b60405180910390fd5b81600401544211156111bc576040517f08c379a00000000000000000000000000000000000000000000000000000000081526004016111b390613c6d565b60405180910390fd5b8160020154341015611203576040517f08c379a00000000000000000000000000000000000000000000000000000000081526004016111fa90613cd9565b60405180910390fd5b80600201543411611249576040517f08c379a000000000000000000000000000000000000000000000000000000000815260040161124090613d45565b60405180910390fd5b600073ffffffffffffffffffffffffffffffffffffffff168160010160009054906101000a900473ffffffffffffffffffffffffffffffffffffffff1673ffffffffffffffffffffffffffffffffffffffff1614611311578060010160009054906101000a900473ffffffffffffffffffffffffffffffffffffffff1673ffffffffffffffffffffffffffffffffffffffff166108fc82600201549081150290604051600060405180830381858888f1935050505015801561130f573d6000803e3d6000fd5b505b338160010160006101000a81548173ffffffffffffffffffffffffffffffffffffffff021916908373ffffffffffffffffffffffffffffffffffffffff1602179055503481600201819055503373ffffffffffffffffffffffffffffffffffffffff16837f0e54eff26401bf69b81b26f60bd85ef47f5d85275c1d268d84f68d6897431c47346040516113a49190613144565b60405180910390a350506113b661233f565b50565b6113cb6113c4611cfa565b8383612349565b5050565b6113e06113da611cfa565b83611dbb565b61141f576040517f08c379a000000000000000000000000000000000000000000000000000000000815260040161141690613830565b60405180910390fd5b61142b848484846124b6565b50505050565b6114396122ef565b6000600b600083815260200190815260200160002090506000600c600084815260200190815260200160002090508160080160009054906101000a900460ff166114b8576040517f08c379a00000000000000000000000000000000000000000000000000000000081526004016114af90613c01565b60405180910390fd5b816004015442116114fe576040517f08c379a00000000000000000000000000000000000000000000000000000000081526004016114f590613db1565b60405180910390fd5b8060030160009054906101000a900460ff1615611550576040517f08c379a000000000000000000000000000000000000000000000000000000000815260040161154790613e1d565b60405180910390fd5b600073ffffffffffffffffffffffffffffffffffffffff168160010160009054906101000a900473ffffffffffffffffffffffffffffffffffffffff1673ffffffffffffffffffffffffffffffffffffffff1614156115e4576040517f08c379a00000000000000000000000000000000000000000000000000000000081526004016115db90613e89565b60405180910390fd5b60018160030160006101000a81548160ff02191690831515021790555060018260060160008282546116169190613ea9565b925050819055506000826006015414156116485760008260080160006101000a81548160ff0219169083151502179055505b611652600a612187565b600061165e600a61219d565b905061168e8260010160009054906101000a900473ffffffffffffffffffffffffffffffffffffffff1682612512565b611724818460070180546116a190613668565b80601f01602080910402602001604051908101604052809291908181526020018280546116cd90613668565b801561171a5780601f106116ef5761010080835404028352916020019161171a565b820191906000526020600020905b8154815290600101906020018083116116fd57829003601f168201915b5050505050612730565b600d60008360010160009054906101000a900473ffffffffffffffffffffffffffffffffffffffff1673ffffffffffffffffffffffffffffffffffffffff1673ffffffffffffffffffffffffffffffffffffffff1681526020019081526020016000208190806001815401808255809150506001900390600052602060002001600090919091909150558260010160009054906101000a900473ffffffffffffffffffffffffffffffffffffffff1673ffffffffffffffffffffffffffffffffffffffff166108fc83600201549081150290604051600060405180830381858888f1935050505015801561181c573d6000803e3d6000fd5b508160010160009054906101000a900473ffffffffffffffffffffffffffffffffffffffff1673ffffffffffffffffffffffffffffffffffffffff16847fd2aa34a4fdbbc6dff6a3e56f46e0f3ae2a31d7785ff3487aa5c95c642acea501846002015460405161188c9190613144565b60405180910390a38160010160009054906101000a900473ffffffffffffffffffffffffffffffffffffffff1673ffffffffffffffffffffffffffffffffffffffff1681857ff371d67483809edbc84279729528d26a3e37ce67f1e3a911778dbf88ff927ca260405160405180910390a450505061190861233f565b50565b6060600d60008373ffffffffffffffffffffffffffffffffffffffff1673ffffffffffffffffffffffffffffffffffffffff16815260200190815260200160002080548060200260200160405190810160405280929190818152602001828054801561199657602002820191906000526020600020905b815481526020019060010190808311611982575b50505050509050919050565b60606119ad82611caf565b60006006600084815260200190815260200160002080546119cd90613668565b80601f01602080910402602001604051908101604052809291908181526020018280546119f990613668565b8015611a465780601f10611a1b57610100808354040283529160200191611a46565b820191906000526020600020905b815481529060010190602001808311611a2957829003601f168201915b505050505090506000611a576127db565b9050600081511415611a6d578192505050611ab0565b600082511115611aa2578082604051602001611a8a929190613f19565b60405160208183030381529060405292505050611ab0565b611aab846127f2565b925050505b919050565b6000600560008473ffffffffffffffffffffffffffffffffffffffff1673ffffffffffffffffffffffffffffffffffffffff16815260200190815260200160002060008373ffffffffffffffffffffffffffffffffffffffff1673ffffffffffffffffffffffffffffffffffffffff16815260200190815260200160002060009054906101000a900460ff16905092915050565b611b516121ab565b600073ffffffffffffffffffffffffffffffffffffffff168173ffffffffffffffffffffffffffffffffffffffff161415611bc1576040517f08c379a0000000000000000000000000000000000000000000000000000000008152600401611bb890613faf565b60405180910390fd5b611bca81612229565b50565b60007f80ac58cd000000000000000000000000000000000000000000000000000000007bffffffffffffffffffffffffffffffffffffffffffffffffffffffff1916827bffffffffffffffffffffffffffffffffffffffffffffffffffffffff19161480611c9857507f5b5e139f000000000000000000000000000000000000000000000000000000007bffffffffffffffffffffffffffffffffffffffffffffffffffffffff1916827bffffffffffffffffffffffffffffffffffffffffffffffffffffffff1916145b80611ca85750611ca78261285a565b5b9050919050565b611cb8816128c4565b611cf7576040517f08c379a0000000000000000000000000000000000000000000000000000000008152600401611cee9061389c565b60405180910390fd5b50565b600033905090565b816004600083815260200190815260200160002060006101000a81548173ffffffffffffffffffffffffffffffffffffffff021916908373ffffffffffffffffffffffffffffffffffffffff160217905550808273ffffffffffffffffffffffffffffffffffffffff16611d7583610a5a565b73ffffffffffffffffffffffffffffffffffffffff167f8c5be1e5ebec7d5bd14f71427d1e84f3dd0314c0f7b2291e5b200ac8c7c3b92560405160405180910390a45050565b600080611dc783610a5a565b90508073ffffffffffffffffffffffffffffffffffffffff168473ffffffffffffffffffffffffffffffffffffffff161480611e095750611e088185611ab5565b5b80611e4757508373ffffffffffffffffffffffffffffffffffffffff16611e2f846106eb565b73ffffffffffffffffffffffffffffffffffffffff16145b91505092915050565b8273ffffffffffffffffffffffffffffffffffffffff16611e7082610a5a565b73ffffffffffffffffffffffffffffffffffffffff1614611ec6576040517f08c379a0000000000000000000000000000000000000000000000000000000008152600401611ebd90614041565b60405180910390fd5b600073ffffffffffffffffffffffffffffffffffffffff168273ffffffffffffffffffffffffffffffffffffffff161415611f36576040517f08c379a0000000000000000000000000000000000000000000000000000000008152600401611f2d906140d3565b60405180910390fd5b611f438383836001612905565b8273ffffffffffffffffffffffffffffffffffffffff16611f6382610a5a565b73ffffffffffffffffffffffffffffffffffffffff1614611fb9576040517f08c379a0000000000000000000000000000000000000000000000000000000008152600401611fb090614041565b60405180910390fd5b6004600082815260200190815260200160002060006101000a81549073ffffffffffffffffffffffffffffffffffffffff02191690556001600360008573ffffffffffffffffffffffffffffffffffffffff1673ffffffffffffffffffffffffffffffffffffffff168152602001908152602001600020600082825403925050819055506001600360008473ffffffffffffffffffffffffffffffffffffffff1673ffffffffffffffffffffffffffffffffffffffff16815260200190815260200160002060008282540192505081905550816002600083815260200190815260200160002060006101000a81548173ffffffffffffffffffffffffffffffffffffffff021916908373ffffffffffffffffffffffffffffffffffffffff160217905550808273ffffffffffffffffffffffffffffffffffffffff168473ffffffffffffffffffffffffffffffffffffffff167fddf252ad1be2c89b69c2b068fc378daa952ba7f163c4a11628f55a4df523b3ef60405160405180910390a4612145838383600161290b565b505050565b60006002600083815260200190815260200160002060009054906101000a900473ffffffffffffffffffffffffffffffffffffffff169050919050565b6001816000016000828254019250508190555050565b600081600001549050919050565b6121b3611cfa565b73ffffffffffffffffffffffffffffffffffffffff166121d1611032565b73ffffffffffffffffffffffffffffffffffffffff1614612227576040517f08c379a000000000000000000000000000000000000000000000000000000000815260040161221e9061413f565b60405180910390fd5b565b6000600760009054906101000a900473ffffffffffffffffffffffffffffffffffffffff16905081600760006101000a81548173ffffffffffffffffffffffffffffffffffffffff021916908373ffffffffffffffffffffffffffffffffffffffff1602179055508173ffffffffffffffffffffffffffffffffffffffff168173ffffffffffffffffffffffffffffffffffffffff167f8be0079c531659141344cd1fd0a4f28419497f9722a3daafe3b4186f6b6457e060405160405180910390a35050565b60026008541415612335576040517f08c379a000000000000000000000000000000000000000000000000000000000815260040161232c906141ab565b60405180910390fd5b6002600881905550565b6001600881905550565b8173ffffffffffffffffffffffffffffffffffffffff168373ffffffffffffffffffffffffffffffffffffffff1614156123b8576040517f08c379a00000000000000000000000000000000000000000000000000000000081526004016123af90614217565b60405180910390fd5b80600560008573ffffffffffffffffffffffffffffffffffffffff1673ffffffffffffffffffffffffffffffffffffffff16815260200190815260200160002060008473ffffffffffffffffffffffffffffffffffffffff1673ffffffffffffffffffffffffffffffffffffffff16815260200190815260200160002060006101000a81548160ff0219169083151502179055508173ffffffffffffffffffffffffffffffffffffffff168373ffffffffffffffffffffffffffffffffffffffff167f17307eab39ab6107e8899845ad3d59bd9653f200f220920489ca2b5937696c31836040516124a99190612e4d565b60405180910390a3505050565b6124c1848484611e50565b6124cd84848484612911565b61250c576040517f08c379a0000000000000000000000000000000000000000000000000000000008152600401612503906142a9565b60405180910390fd5b50505050565b600073ffffffffffffffffffffffffffffffffffffffff168273ffffffffffffffffffffffffffffffffffffffff161415612582576040517f08c379a000000000000000000000000000000000000000000000000000000000815260040161257990614315565b60405180910390fd5b61258b816128c4565b156125cb576040517f08c379a00000000000000000000000000000000000000000000000000000000081526004016125c290614381565b60405180910390fd5b6125d9600083836001612905565b6125e2816128c4565b15612622576040517f08c379a000000000000000000000000000000000000000000000000000000000815260040161261990614381565b60405180910390fd5b6001600360008473ffffffffffffffffffffffffffffffffffffffff1673ffffffffffffffffffffffffffffffffffffffff16815260200190815260200160002060008282540192505081905550816002600083815260200190815260200160002060006101000a81548173ffffffffffffffffffffffffffffffffffffffff021916908373ffffffffffffffffffffffffffffffffffffffff160217905550808273ffffffffffffffffffffffffffffffffffffffff16600073ffffffffffffffffffffffffffffffffffffffff167fddf252ad1be2c89b69c2b068fc378daa952ba7f163c4a11628f55a4df523b3ef60405160405180910390a461272c60008383600161290b565b5050565b612739826128c4565b612778576040517f08c379a000000000000000000000000000000000000000000000000000000000815260040161276f90614413565b60405180910390fd5b8060066000848152602001908152602001600020908051906020019061279f929190612cf6565b507ff8e1a15aba9398e019f0b49df1a4fde98ee17ae345cb5f6b5e2c27f5033e8ce7826040516127cf9190613144565b60405180910390a15050565b606060405180602001604052806000815250905090565b60606127fd82611caf565b60006128076127db565b905060008151116128275760405180602001604052806000815250612852565b8061283184612aa8565b604051602001612842929190613f19565b6040516020818303038152906040525b915050919050565b60007f01ffc9a7000000000000000000000000000000000000000000000000000000007bffffffffffffffffffffffffffffffffffffffffffffffffffffffff1916827bffffffffffffffffffffffffffffffffffffffffffffffffffffffff1916149050919050565b60008073ffffffffffffffffffffffffffffffffffffffff166128e68361214a565b73ffffffffffffffffffffffffffffffffffffffff1614159050919050565b50505050565b50505050565b60006129328473ffffffffffffffffffffffffffffffffffffffff16612b80565b15612a9b578373ffffffffffffffffffffffffffffffffffffffff1663150b7a0261295b611cfa565b8786866040518563ffffffff1660e01b815260040161297d9493929190614488565b602060405180830381600087803b15801561299757600080fd5b505af19250505080156129c857506040513d601f19601f820116820180604052508101906129c591906144e9565b60015b612a4b573d80600081146129f8576040519150601f19603f3d011682016040523d82523d6000602084013e6129fd565b606091505b50600081511415612a43576040517f08c379a0000000000000000000000000000000000000000000000000000000008152600401612a3a906142a9565b60405180910390fd5b805181602001fd5b63150b7a0260e01b7bffffffffffffffffffffffffffffffffffffffffffffffffffffffff1916817bffffffffffffffffffffffffffffffffffffffffffffffffffffffff191614915050612aa0565b600190505b949350505050565b606060006001612ab784612ba3565b01905060008167ffffffffffffffff811115612ad657612ad56131ae565b5b6040519080825280601f01601f191660200182016040528015612b085781602001600182028036833780820191505090505b509050600082602001820190505b600115612b75578080600190039150507f3031323334353637383961626364656600000000000000000000000000000000600a86061a8153600a8581612b5f57612b5e614516565b5b0494506000851415612b7057612b75565b612b16565b819350505050919050565b6000808273ffffffffffffffffffffffffffffffffffffffff163b119050919050565b600080600090507a184f03e93ff9f4daa797ed6e38ed64bf6a1f0100000000000000008310612c01577a184f03e93ff9f4daa797ed6e38ed64bf6a1f0100000000000000008381612bf757612bf6614516565b5b0492506040810190505b6d04ee2d6d415b85acef81000000008310612c3e576d04ee2d6d415b85acef81000000008381612c3457612c33614516565b5b0492506020810190505b662386f26fc100008310612c6d57662386f26fc100008381612c6357612c62614516565b5b0492506010810190505b6305f5e1008310612c96576305f5e1008381612c8c57612c8b614516565b5b0492506008810190505b6127108310612cbb576127108381612cb157612cb0614516565b5b0492506004810190505b60648310612cde5760648381612cd457612cd3614516565b5b0492506002810190505b600a8310612ced576001810190505b80915050919050565b828054612d0290613668565b90600052602060002090601f016020900481019282612d245760008555612d6b565b82601f10612d3d57805160ff1916838001178555612d6b565b82800160010185558215612d6b579182015b82811115612d6a578251825591602001919060010190612d4f565b5b509050612d789190612d7c565b5090565b5b80821115612d95576000816000905550600101612d7d565b5090565b6000604051905090565b600080fd5b600080fd5b60007fffffffff0000000000000000000000000000000000000000000000000000000082169050919050565b612de281612dad565b8114612ded57600080fd5b50565b600081359050612dff81612dd9565b92915050565b600060208284031215612e1b57612e1a612da3565b5b6000612e2984828501612df0565b91505092915050565b60008115159050919050565b612e4781612e32565b82525050565b6000602082019050612e626000830184612e3e565b92915050565b600081519050919050565b600082825260208201905092915050565b60005b83811015612ea2578082015181840152602081019050612e87565b83811115612eb1576000848401525b50505050565b6000601f19601f8301169050919050565b6000612ed382612e68565b612edd8185612e73565b9350612eed818560208601612e84565b612ef681612eb7565b840191505092915050565b60006020820190508181036000830152612f1b8184612ec8565b905092915050565b6000819050919050565b612f3681612f23565b8114612f4157600080fd5b50565b600081359050612f5381612f2d565b92915050565b600060208284031215612f6f57612f6e612da3565b5b6000612f7d84828501612f44565b91505092915050565b600073ffffffffffffffffffffffffffffffffffffffff82169050919050565b6000612fb182612f86565b9050919050565b612fc181612fa6565b82525050565b6000602082019050612fdc6000830184612fb8565b92915050565b612feb81612fa6565b8114612ff657600080fd5b50565b60008135905061300881612fe2565b92915050565b6000806040838503121561302557613024612da3565b5b600061303385828601612ff9565b925050602061304485828601612f44565b9150509250929050565b61305781612f23565b82525050565b600061012082019050613073600083018c61304e565b613080602083018b612fb8565b61308d604083018a61304e565b61309a606083018961304e565b6130a7608083018861304e565b6130b460a083018761304e565b6130c160c083018661304e565b81810360e08301526130d38185612ec8565b90506130e3610100830184612e3e565b9a9950505050505050505050565b60008060006060848603121561310a57613109612da3565b5b600061311886828701612ff9565b935050602061312986828701612ff9565b925050604061313a86828701612f44565b9150509250925092565b6000602082019050613159600083018461304e565b92915050565b6000608082019050613174600083018761304e565b6131816020830186612fb8565b61318e604083018561304e565b61319b6060830184612e3e565b95945050505050565b600080fd5b600080fd5b7f4e487b7100000000000000000000000000000000000000000000000000000000600052604160045260246000fd5b6131e682612eb7565b810181811067ffffffffffffffff82111715613205576132046131ae565b5b80604052505050565b6000613218612d99565b905061322482826131dd565b919050565b600067ffffffffffffffff821115613244576132436131ae565b5b61324d82612eb7565b9050602081019050919050565b82818337600083830152505050565b600061327c61327784613229565b61320e565b905082815260208101848484011115613298576132976131a9565b5b6132a384828561325a565b509392505050565b600082601f8301126132c0576132bf6131a4565b5b81356132d0848260208601613269565b91505092915050565b600080600080608085870312156132f3576132f2612da3565b5b600061330187828801612f44565b945050602061331287828801612f44565b935050604061332387828801612f44565b925050606085013567ffffffffffffffff81111561334457613343612da8565b5b613350878288016132ab565b91505092959194509250565b60006020828403121561337257613371612da3565b5b600061338084828501612ff9565b91505092915050565b600081519050919050565b600082825260208201905092915050565b6000819050602082019050919050565b6133be81612f23565b82525050565b60006133d083836133b5565b60208301905092915050565b6000602082019050919050565b60006133f482613389565b6133fe8185613394565b9350613409836133a5565b8060005b8381101561343a57815161342188826133c4565b975061342c836133dc565b92505060018101905061340d565b5085935050505092915050565b6000602082019050818103600083015261346181846133e9565b905092915050565b61347281612e32565b811461347d57600080fd5b50565b60008135905061348f81613469565b92915050565b600080604083850312156134ac576134ab612da3565b5b60006134ba85828601612ff9565b92505060206134cb85828601613480565b9150509250929050565b600067ffffffffffffffff8211156134f0576134ef6131ae565b5b6134f982612eb7565b9050602081019050919050565b6000613519613514846134d5565b61320e565b905082815260208101848484011115613535576135346131a9565b5b61354084828561325a565b509392505050565b600082601f83011261355d5761355c6131a4565b5b813561356d848260208601613506565b91505092915050565b600080600080608085870312156135905761358f612da3565b5b600061359e87828801612ff9565b94505060206135af87828801612ff9565b93505060406135c087828801612f44565b925050606085013567ffffffffffffffff8111156135e1576135e0612da8565b5b6135ed87828801613548565b91505092959194509250565b600080604083850312156136105761360f612da3565b5b600061361e85828601612ff9565b925050602061362f85828601612ff9565b9150509250929050565b7f4e487b7100000000000000000000000000000000000000000000000000000000600052602260045260246000fd5b6000600282049050600182168061368057607f821691505b6020821081141561369457613693613639565b5b50919050565b7f4552433732313a20617070726f76616c20746f2063757272656e74206f776e6560008201527f7200000000000000000000000000000000000000000000000000000000000000602082015250565b60006136f6602183612e73565b91506137018261369a565b604082019050919050565b60006020820190508181036000830152613725816136e9565b9050919050565b7f4552433732313a20617070726f76652063616c6c6572206973206e6f7420746f60008201527f6b656e206f776e6572206f7220617070726f76656420666f7220616c6c000000602082015250565b6000613788603d83612e73565b91506137938261372c565b604082019050919050565b600060208201905081810360008301526137b78161377b565b9050919050565b7f4552433732313a2063616c6c6572206973206e6f7420746f6b656e206f776e6560008201527f72206f7220617070726f76656400000000000000000000000000000000000000602082015250565b600061381a602d83612e73565b9150613825826137be565b604082019050919050565b600060208201905081810360008301526138498161380d565b9050919050565b7f4552433732313a20696e76616c696420746f6b656e2049440000000000000000600082015250565b6000613886601883612e73565b915061389182613850565b602082019050919050565b600060208201905081810360008301526138b581613879565b9050919050565b7f466c6f6f72207072696365206d7573742062652067726561746572207468616e60008201527f2030000000000000000000000000000000000000000000000000000000000000602082015250565b6000613918602283612e73565b9150613923826138bc565b604082019050919050565b600060208201905081810360008301526139478161390b565b9050919050565b7f4475726174696f6e206d7573742062652067726561746572207468616e203000600082015250565b6000613984601f83612e73565b915061398f8261394e565b602082019050919050565b600060208201905081810360008301526139b381613977565b9050919050565b7f537570706c79206d7573742062652067726561746572207468616e2030000000600082015250565b60006139f0601d83612e73565b91506139fb826139ba565b602082019050919050565b60006020820190508181036000830152613a1f816139e3565b9050919050565b7f4e487b7100000000000000000000000000000000000000000000000000000000600052601160045260246000fd5b6000613a6082612f23565b9150613a6b83612f23565b9250827fffffffffffffffffffffffffffffffffffffffffffffffffffffffffffffffff03821115613aa057613a9f613a26565b5b828201905092915050565b7f4552433732313a2061646472657373207a65726f206973206e6f74206120766160008201527f6c6964206f776e65720000000000000000000000000000000000000000000000602082015250565b6000613b07602983612e73565b9150613b1282613aab565b604082019050919050565b60006020820190508181036000830152613b3681613afa565b9050919050565b6000613b4882612f23565b91507fffffffffffffffffffffffffffffffffffffffffffffffffffffffffffffffff821415613b7b57613b7a613a26565b5b600182019050919050565b7f4e487b7100000000000000000000000000000000000000000000000000000000600052603260045260246000fd5b7f4d79737465727920626f78206973206e6f742061637469766500000000000000600082015250565b6000613beb601983612e73565b9150613bf682613bb5565b602082019050919050565b60006020820190508181036000830152613c1a81613bde565b9050919050565b7f41756374696f6e2068617320656e646564000000000000000000000000000000600082015250565b6000613c57601183612e73565b9150613c6282613c21565b602082019050919050565b60006020820190508181036000830152613c8681613c4a565b9050919050565b7f42696420616d6f756e742062656c6f7720666c6f6f7220707269636500000000600082015250565b6000613cc3601c83612e73565b9150613cce82613c8d565b602082019050919050565b60006020820190508181036000830152613cf281613cb6565b9050919050565b7f42696420616d6f756e7420746f6f206c6f770000000000000000000000000000600082015250565b6000613d2f601283612e73565b9150613d3a82613cf9565b602082019050919050565b60006020820190508181036000830152613d5e81613d22565b9050919050565b7f41756374696f6e20686173206e6f7420656e6465642079657400000000000000600082015250565b6000613d9b601983612e73565b9150613da682613d65565b602082019050919050565b60006020820190508181036000830152613dca81613d8e565b9050919050565b7f41756374696f6e20616c726561647920656e6465640000000000000000000000600082015250565b6000613e07601583612e73565b9150613e1282613dd1565b602082019050919050565b60006020820190508181036000830152613e3681613dfa565b9050919050565b7f4e6f2062696473207765726520706c6163656400000000000000000000000000600082015250565b6000613e73601383612e73565b9150613e7e82613e3d565b602082019050919050565b60006020820190508181036000830152613ea281613e66565b9050919050565b6000613eb482612f23565b9150613ebf83612f23565b925082821015613ed257613ed1613a26565b5b828203905092915050565b600081905092915050565b6000613ef382612e68565b613efd8185613edd565b9350613f0d818560208601612e84565b80840191505092915050565b6000613f258285613ee8565b9150613f318284613ee8565b91508190509392505050565b7f4f776e61626c653a206e6577206f776e657220697320746865207a65726f206160008201527f6464726573730000000000000000000000000000000000000000000000000000602082015250565b6000613f99602683612e73565b9150613fa482613f3d565b604082019050919050565b60006020820190508181036000830152613fc881613f8c565b9050919050565b7f4552433732313a207472616e736665722066726f6d20696e636f72726563742060008201527f6f776e6572000000000000000000000000000000000000000000000000000000602082015250565b600061402b602583612e73565b915061403682613fcf565b604082019050919050565b6000602082019050818103600083015261405a8161401e565b9050919050565b7f4552433732313a207472616e7366657220746f20746865207a65726f2061646460008201527f7265737300000000000000000000000000000000000000000000000000000000602082015250565b60006140bd602483612e73565b91506140c882614061565b604082019050919050565b600060208201905081810360008301526140ec816140b0565b9050919050565b7f4f776e61626c653a2063616c6c6572206973206e6f7420746865206f776e6572600082015250565b6000614129602083612e73565b9150614134826140f3565b602082019050919050565b600060208201905081810360008301526141588161411c565b9050919050565b7f5265656e7472616e637947756172643a207265656e7472616e742063616c6c00600082015250565b6000614195601f83612e73565b91506141a08261415f565b602082019050919050565b600060208201905081810360008301526141c481614188565b9050919050565b7f4552433732313a20617070726f766520746f2063616c6c657200000000000000600082015250565b6000614201601983612e73565b915061420c826141cb565b602082019050919050565b60006020820190508181036000830152614230816141f4565b9050919050565b7f4552433732313a207472616e7366657220746f206e6f6e20455243373231526560008201527f63656976657220696d706c656d656e7465720000000000000000000000000000602082015250565b6000614293603283612e73565b915061429e82614237565b604082019050919050565b600060208201905081810360008301526142c281614286565b9050919050565b7f4552433732313a206d696e7420746f20746865207a65726f2061646472657373600082015250565b60006142ff602083612e73565b915061430a826142c9565b602082019050919050565b6000602082019050818103600083015261432e816142f2565b9050919050565b7f4552433732313a20746f6b656e20616c7265616479206d696e74656400000000600082015250565b600061436b601c83612e73565b915061437682614335565b602082019050919050565b6000602082019050818103600083015261439a8161435e565b9050919050565b7f45524337323155524953746f726167653a2055524920736574206f66206e6f6e60008201527f6578697374656e7420746f6b656e000000000000000000000000000000000000602082015250565b60006143fd602e83612e73565b9150614408826143a1565b604082019050919050565b6000602082019050818103600083015261442c816143f0565b9050919050565b600081519050919050565b600082825260208201905092915050565b600061445a82614433565b614464818561443e565b9350614474818560208601612e84565b61447d81612eb7565b840191505092915050565b600060808201905061449d6000830187612fb8565b6144aa6020830186612fb8565b6144b7604083018561304e565b81810360608301526144c9818461444f565b905095945050505050565b6000815190506144e381612dd9565b92915050565b6000602082840312156144ff576144fe612da3565b5b600061450d848285016144d4565b91505092915050565b7f4e487b7100000000000000000000000000000000000000000000000000000000600052601260045260246000fdfea26469706673582212202741fafa95d21f659a08b9f7ad4ece2c6632eaf47f47b7aed60e96e17425281464736f6c63430008090033",
  "linkReferences": {},
  "deployedLinkReferences": {}
}