{
  "_format": "hh-sol-artifact-1",
  "contractName": "MysteryBoxLaunchpad",
  "sourceName": "contracts/MysteryBoxLaunchpad.sol",
  "abi": [
    {
      "anonymous": false,
      "inputs": [
        {
          "indexed": true,
          "internalType": "uint256",
          "name": "boxId",
          "type": "uint256"
        },
        {
          "indexed": true,
          "internalType": "address",
          "name": "creator",
          "type": "address"
        },
        {
          "indexed": false,
          "internalType": "uint256",
          "name": "floorPrice",
          "type": "uint256"
        }
      ],
      "name": "BoxCreated",
      "type": "event"
    },
    {
      "anonymous": false,
      "inputs": [
        {
          "indexed": true,
          "internalType": "uint256",
          "name": "boxId",
          "type": "uint256"
        },
        {
          "indexed": true,
          "internalType": "address",
          "name": "bidder",
          "type": "address"
        },
        {
          "indexed": false,
          "internalType": "uint256",
          "name": "bidAmount",
          "type": "uint256"
        }
      ],
      "name": "NewBid",
      "type": "event"
    },
    {
      "inputs": [
        {
          "internalType": "uint256",
          "name": "boxId",
          "type": "uint256"
        }
      ],
      "name": "bid",
      "outputs": [],
      "stateMutability": "payable",
      "type": "function"
    },
    {
      "inputs": [],
      "name": "boxCount",
      "outputs": [
        {
          "internalType": "uint256",
          "name": "",
          "type": "uint256"
        }
      ],
      "stateMutability": "view",
      "type": "function"
    },
    {
      "inputs": [
        {
          "internalType": "uint256",
          "name": "",
          "type": "uint256"
        }
      ],
      "name": "boxes",
      "outputs": [
        {
          "internalType": "address",
          "name": "creator",
          "type": "address"
        },
        {
          "internalType": "uint256",
          "name": "floorPrice",
          "type": "uint256"
        },
        {
          "internalType": "uint256",
          "name": "currentBid",
          "type": "uint256"
        },
        {
          "internalType": "address",
          "name": "highestBidder",
          "type": "address"
        },
        {
          "internalType": "bool",
          "name": "sold",
          "type": "bool"
        }
      ],
      "stateMutability": "view",
      "type": "function"
    },
    {
      "inputs": [
        {
          "internalType": "uint256",
          "name": "numberOfBoxes",
          "type": "uint256"
        },
        {
          "internalType": "uint256",
          "name": "floorPrice",
          "type": "uint256"
        }
      ],
      "name": "createBoxes",
      "outputs": [],
      "stateMutability": "nonpayable",
      "type": "function"
    },
    {
      "inputs": [
        {
          "internalType": "uint256",
          "name": "boxId",
          "type": "uint256"
        }
      ],
      "name": "finalizeBox",
      "outputs": [],
      "stateMutability": "nonpayable",
      "type": "function"
    }
  ],
  "bytecode": "0x608060405234801561001057600080fd5b50610be3806100206000396000f3fe60806040526004361061004a5760003560e01c806344ff038f1461004f578063454a2ab31461007a5780634ed3faf21461009657806370293f58146100d75780638ed6fd4f14610100575b600080fd5b34801561005b57600080fd5b50610064610129565b6040516100719190610aaa565b60405180910390f35b610094600480360381019061008f91906107bf565b61012f565b005b3480156100a257600080fd5b506100bd60048036038101906100b891906107bf565b610344565b6040516100ce9594939291906109b7565b60405180910390f35b3480156100e357600080fd5b506100fe60048036038101906100f991906107bf565b6103c7565b005b34801561010c57600080fd5b50610127600480360381019061012291906107e8565b6105ab565b005b60015481565b600080600083815260200190815260200160002090508060030160149054906101000a900460ff1615610197576040517f08c379a000000000000000000000000000000000000000000000000000000000815260040161018e90610a0a565b60405180910390fd5b806002015434116101dd576040517f08c379a00000000000000000000000000000000000000000000000000000000081526004016101d490610a4a565b60405180910390fd5b600073ffffffffffffffffffffffffffffffffffffffff168160030160009054906101000a900473ffffffffffffffffffffffffffffffffffffffff1673ffffffffffffffffffffffffffffffffffffffff16146102a5578060030160009054906101000a900473ffffffffffffffffffffffffffffffffffffffff1673ffffffffffffffffffffffffffffffffffffffff166108fc82600201549081150290604051600060405180830381858888f193505050501580156102a3573d6000803e3d6000fd5b505b348160020181905550338160030160006101000a81548173ffffffffffffffffffffffffffffffffffffffff021916908373ffffffffffffffffffffffffffffffffffffffff1602179055503373ffffffffffffffffffffffffffffffffffffffff16827f558a0d5d5468d74b0db24c74eb348b42271c2ebb4c9e953ced38aaed95fa4361346040516103389190610aaa565b60405180910390a35050565b60006020528060005260406000206000915090508060000160009054906101000a900473ffffffffffffffffffffffffffffffffffffffff16908060010154908060020154908060030160009054906101000a900473ffffffffffffffffffffffffffffffffffffffff16908060030160149054906101000a900460ff16905085565b600080600083815260200190815260200160002090508060030160149054906101000a900460ff161561042f576040517f08c379a000000000000000000000000000000000000000000000000000000000815260040161042690610a6a565b60405180910390fd5b8060000160009054906101000a900473ffffffffffffffffffffffffffffffffffffffff1673ffffffffffffffffffffffffffffffffffffffff163373ffffffffffffffffffffffffffffffffffffffff1614806104dc57508060030160009054906101000a900473ffffffffffffffffffffffffffffffffffffffff1673ffffffffffffffffffffffffffffffffffffffff163373ffffffffffffffffffffffffffffffffffffffff16145b61051b576040517f08c379a000000000000000000000000000000000000000000000000000000000815260040161051290610a8a565b60405180910390fd5b60018160030160146101000a81548160ff0219169083151502179055508060000160009054906101000a900473ffffffffffffffffffffffffffffffffffffffff1673ffffffffffffffffffffffffffffffffffffffff166108fc82600201549081150290604051600060405180830381858888f193505050501580156105a6573d6000803e3d6000fd5b505050565b600082116105ee576040517f08c379a00000000000000000000000000000000000000000000000000000000081526004016105e590610a2a565b60405180910390fd5b60005b828110156107a5576040518060a001604052803373ffffffffffffffffffffffffffffffffffffffff168152602001838152602001838152602001600073ffffffffffffffffffffffffffffffffffffffff16815260200160001515815250600080600154815260200190815260200160002060008201518160000160006101000a81548173ffffffffffffffffffffffffffffffffffffffff021916908373ffffffffffffffffffffffffffffffffffffffff160217905550602082015181600101556040820151816002015560608201518160030160006101000a81548173ffffffffffffffffffffffffffffffffffffffff021916908373ffffffffffffffffffffffffffffffffffffffff16021790555060808201518160030160146101000a81548160ff0219169083151502179055509050503373ffffffffffffffffffffffffffffffffffffffff166001547fb66242f01983984b6037dadedb09faa426b68d65b31234ca374c89a9dd4d4849846040516107729190610aaa565b60405180910390a36001600081548092919061078d90610b1e565b9190505550808061079d90610b1e565b9150506105f1565b505050565b6000813590506107b981610b96565b92915050565b6000602082840312156107d157600080fd5b60006107df848285016107aa565b91505092915050565b600080604083850312156107fb57600080fd5b6000610809858286016107aa565b925050602061081a858286016107aa565b9150509250929050565b61082d81610ad6565b82525050565b61083c81610ae8565b82525050565b600061084f601083610ac5565b91507f426f7820616c726561647920736f6c64000000000000000000000000000000006000830152602082019050919050565b600061088f601c83610ac5565b91507f4d75737420637265617465206174206c65617374206f6e6520626f78000000006000830152602082019050919050565b60006108cf602383610ac5565b91507f426964206d75737420626520686967686572207468616e2063757272656e742060008301527f62696400000000000000000000000000000000000000000000000000000000006020830152604082019050919050565b6000610935601183610ac5565b91507f416c72656164792066696e616c697a65640000000000000000000000000000006000830152602082019050919050565b6000610975600e83610ac5565b91507f4e6f7420617574686f72697a65640000000000000000000000000000000000006000830152602082019050919050565b6109b181610b14565b82525050565b600060a0820190506109cc6000830188610824565b6109d960208301876109a8565b6109e660408301866109a8565b6109f36060830185610824565b610a006080830184610833565b9695505050505050565b60006020820190508181036000830152610a2381610842565b9050919050565b60006020820190508181036000830152610a4381610882565b9050919050565b60006020820190508181036000830152610a63816108c2565b9050919050565b60006020820190508181036000830152610a8381610928565b9050919050565b60006020820190508181036000830152610aa381610968565b9050919050565b6000602082019050610abf60008301846109a8565b92915050565b600082825260208201905092915050565b6000610ae182610af4565b9050919050565b60008115159050919050565b600073ffffffffffffffffffffffffffffffffffffffff82169050919050565b6000819050919050565b6000610b2982610b14565b91507fffffffffffffffffffffffffffffffffffffffffffffffffffffffffffffffff821415610b5c57610b5b610b67565b5b600182019050919050565b7f4e487b7100000000000000000000000000000000000000000000000000000000600052601160045260246000fd5b610b9f81610b14565b8114610baa57600080fd5b5056fea2646970667358221220deaabd700a20af8ec58fca0da3c1199cd197cb2986a0e42532c2721886a3112e64736f6c63430008000033",
  "linkReferences": {},
  "deployedLinkReferences": {}
}