{
  "_format": "hh-sol-artifact-1",
  "contractName": "MysteryBox",
  "sourceName": "contracts/MysteryBox.sol",
  "abi": [
    {
      "inputs": [
        {
          "internalType": "string[]",
          "name": "initialNFTs",
          "type": "string[]"
        }
      ],
      "stateMutability": "nonpayable",
      "type": "constructor"
    },
    {
      "anonymous": false,
      "inputs": [
        {
          "indexed": true,
          "internalType": "address",
          "name": "user",
          "type": "address"
        },
        {
          "indexed": false,
          "internalType": "string",
          "name": "nftURI",
          "type": "string"
        }
      ],
      "name": "NFTAssigned",
      "type": "event"
    },
    {
      "inputs": [
        {
          "internalType": "uint256",
          "name": "",
          "type": "uint256"
        }
      ],
      "name": "nftCollection",
      "outputs": [
        {
          "internalType": "string",
          "name": "",
          "type": "string"
        }
      ],
      "stateMutability": "view",
      "type": "function"
    },
    {
      "inputs": [],
      "name": "openMysteryBox",
      "outputs": [],
      "stateMutability": "payable",
      "type": "function"
    },
    {
      "inputs": [],
      "name": "owner",
      "outputs": [
        {
          "internalType": "address",
          "name": "",
          "type": "address"
        }
      ],
      "stateMutability": "view",
      "type": "function"
    },
    {
      "inputs": [],
      "name": "platformFeePercent",
      "outputs": [
        {
          "internalType": "uint256",
          "name": "",
          "type": "uint256"
        }
      ],
      "stateMutability": "view",
      "type": "function"
    }
  ],
  "bytecode": "0x6080604052600180553480156200001557600080fd5b5060405162000d8338038062000d8383398181016040528101906200003b9190620004b9565b336000806101000a81548173ffffffffffffffffffffffffffffffffffffffff021916908373ffffffffffffffffffffffffffffffffffffffff1602179055508060029080519060200190620000939291906200009b565b50506200056f565b828054828255906000526020600020908101928215620000ef579160200282015b82811115620000ee578251829080519060200190620000dd92919062000102565b5091602001919060010190620000bc565b5b509050620000fe919062000193565b5090565b828054620001109062000539565b90600052602060002090601f01602090048101928262000134576000855562000180565b82601f106200014f57805160ff191683800117855562000180565b8280016001018555821562000180579182015b828111156200017f57825182559160200191906001019062000162565b5b5090506200018f9190620001bb565b5090565b5b80821115620001b75760008181620001ad9190620001da565b5060010162000194565b5090565b5b80821115620001d6576000816000905550600101620001bc565b5090565b508054620001e89062000539565b6000825580601f10620001fc57506200021d565b601f0160209004906000526020600020908101906200021c9190620001bb565b5b50565b6000604051905090565b600080fd5b600080fd5b600080fd5b6000601f19601f8301169050919050565b7f4e487b7100000000000000000000000000000000000000000000000000000000600052604160045260246000fd5b620002848262000239565b810181811067ffffffffffffffff82111715620002a657620002a56200024a565b5b80604052505050565b6000620002bb62000220565b9050620002c9828262000279565b919050565b600067ffffffffffffffff821115620002ec57620002eb6200024a565b5b602082029050602081019050919050565b600080fd5b600080fd5b600067ffffffffffffffff8211156200032557620003246200024a565b5b620003308262000239565b9050602081019050919050565b60005b838110156200035d57808201518184015260208101905062000340565b838111156200036d576000848401525b50505050565b60006200038a620003848462000307565b620002af565b905082815260208101848484011115620003a957620003a862000302565b5b620003b68482856200033d565b509392505050565b600082601f830112620003d657620003d562000234565b5b8151620003e884826020860162000373565b91505092915050565b6000620004086200040284620002ce565b620002af565b905080838252602082019050602084028301858111156200042e576200042d620002fd565b5b835b818110156200047c57805167ffffffffffffffff81111562000457576200045662000234565b5b808601620004668982620003be565b8552602085019450505060208101905062000430565b5050509392505050565b600082601f8301126200049e576200049d62000234565b5b8151620004b0848260208601620003f1565b91505092915050565b600060208284031215620004d257620004d16200022a565b5b600082015167ffffffffffffffff811115620004f357620004f26200022f565b5b620005018482850162000486565b91505092915050565b7f4e487b7100000000000000000000000000000000000000000000000000000000600052602260045260246000fd5b600060028204905060018216806200055257607f821691505b602082108114156200056957620005686200050a565b5b50919050565b610804806200057f6000396000f3fe60806040526004361061003f5760003560e01c806315cc38ea146100445780637c711b271461004e5780638c639a851461008b5780638da5cb5b146100b6575b600080fd5b61004c6100e1565b005b34801561005a57600080fd5b50610075600480360381019061007091906103a4565b610251565b604051610082919061046a565b60405180910390f35b34801561009757600080fd5b506100a06102fd565b6040516100ad919061049b565b60405180910390f35b3480156100c257600080fd5b506100cb610303565b6040516100d891906104f7565b60405180910390f35b60006064600154346100f39190610541565b6100fd91906105ca565b9050803411610141576040517f08c379a000000000000000000000000000000000000000000000000000000000815260040161013890610647565b60405180910390fd5b6000610151600280549050610327565b905060006002828154811061016957610168610667565b5b90600052602060002001805461017e906106c5565b80601f01602080910402602001604051908101604052809291908181526020018280546101aa906106c5565b80156101f75780601f106101cc576101008083540402835291602001916101f7565b820191906000526020600020905b8154815290600101906020018083116101da57829003601f168201915b505050505090503373ffffffffffffffffffffffffffffffffffffffff167fd45c1f75e8d08f913ec00169f3e4be2ded92648acec55458114bbbaac08e3f6982604051610244919061046a565b60405180910390a2505050565b6002818154811061026157600080fd5b90600052602060002001600091509050805461027c906106c5565b80601f01602080910402602001604051908101604052809291908181526020018280546102a8906106c5565b80156102f55780601f106102ca576101008083540402835291602001916102f5565b820191906000526020600020905b8154815290600101906020018083116102d857829003601f168201915b505050505081565b60015481565b60008054906101000a900473ffffffffffffffffffffffffffffffffffffffff1681565b60008142443360405160200161033f93929190610760565b6040516020818303038152906040528051906020012060001c610362919061079d565b9050919050565b600080fd5b6000819050919050565b6103818161036e565b811461038c57600080fd5b50565b60008135905061039e81610378565b92915050565b6000602082840312156103ba576103b9610369565b5b60006103c88482850161038f565b91505092915050565b600081519050919050565b600082825260208201905092915050565b60005b8381101561040b5780820151818401526020810190506103f0565b8381111561041a576000848401525b50505050565b6000601f19601f8301169050919050565b600061043c826103d1565b61044681856103dc565b93506104568185602086016103ed565b61045f81610420565b840191505092915050565b600060208201905081810360008301526104848184610431565b905092915050565b6104958161036e565b82525050565b60006020820190506104b0600083018461048c565b92915050565b600073ffffffffffffffffffffffffffffffffffffffff82169050919050565b60006104e1826104b6565b9050919050565b6104f1816104d6565b82525050565b600060208201905061050c60008301846104e8565b92915050565b7f4e487b7100000000000000000000000000000000000000000000000000000000600052601160045260246000fd5b600061054c8261036e565b91506105578361036e565b9250817fffffffffffffffffffffffffffffffffffffffffffffffffffffffffffffffff04831182151516156105905761058f610512565b5b828202905092915050565b7f4e487b7100000000000000000000000000000000000000000000000000000000600052601260045260246000fd5b60006105d58261036e565b91506105e08361036e565b9250826105f0576105ef61059b565b5b828204905092915050565b7f496e73756666696369656e74206665652070726f766964656400000000000000600082015250565b60006106316019836103dc565b915061063c826105fb565b602082019050919050565b6000602082019050818103600083015261066081610624565b9050919050565b7f4e487b7100000000000000000000000000000000000000000000000000000000600052603260045260246000fd5b7f4e487b7100000000000000000000000000000000000000000000000000000000600052602260045260246000fd5b600060028204905060018216806106dd57607f821691505b602082108114156106f1576106f0610696565b5b50919050565b6000819050919050565b61071261070d8261036e565b6106f7565b82525050565b60008160601b9050919050565b600061073082610718565b9050919050565b600061074282610725565b9050919050565b61075a610755826104d6565b610737565b82525050565b600061076c8286610701565b60208201915061077c8285610701565b60208201915061078c8284610749565b601482019150819050949350505050565b60006107a88261036e565b91506107b38361036e565b9250826107c3576107c261059b565b5b82820690509291505056fea26469706673582212206c12bdba02c5b48bd1b09881a2a82cf79fc51c733e763f42f93d7c9ee380866464736f6c63430008090033",
  "linkReferences": {},
  "deployedLinkReferences": {}
}