{
  "_format": "hh-sol-artifact-1",
  "contractName": "MysteryBox",
  "sourceName": "contracts/MysteryBox.sol",
  "abi": [
    {
      "inputs": [
        {
          "internalType": "string[]",
          "name": "initialNFTs",
          "type": "string[]"
        }
      ],
      "stateMutability": "nonpayable",
      "type": "constructor"
    },
    {
      "anonymous": false,
      "inputs": [
        {
          "indexed": true,
          "internalType": "address",
          "name": "user",
          "type": "address"
        },
        {
          "indexed": false,
          "internalType": "string",
          "name": "nftURI",
          "type": "string"
        }
      ],
      "name": "NFTAssigned",
      "type": "event"
    },
    {
      "inputs": [
        {
          "internalType": "uint256",
          "name": "",
          "type": "uint256"
        }
      ],
      "name": "nftCollection",
      "outputs": [
        {
          "internalType": "string",
          "name": "",
          "type": "string"
        }
      ],
      "stateMutability": "view",
      "type": "function"
    },
    {
      "inputs": [],
      "name": "openMysteryBox",
      "outputs": [],
      "stateMutability": "payable",
      "type": "function"
    },
    {
      "inputs": [],
      "name": "owner",
      "outputs": [
        {
          "internalType": "address",
          "name": "",
          "type": "address"
        }
      ],
      "stateMutability": "view",
      "type": "function"
    },
    {
      "inputs": [],
      "name": "platformFeePercent",
      "outputs": [
        {
          "internalType": "uint256",
          "name": "",
          "type": "uint256"
        }
      ],
      "stateMutability": "view",
      "type": "function"
    }
  ],
  "bytecode": "0x6080604052600180553480156200001557600080fd5b5060405162000cbf38038062000cbf83398181016040528101906200003b919062000324565b336000806101000a81548173ffffffffffffffffffffffffffffffffffffffff021916908373ffffffffffffffffffffffffffffffffffffffff1602179055508060029080519060200190620000939291906200009b565b5050620004c9565b828054828255906000526020600020908101928215620000ef579160200282015b82811115620000ee578251829080519060200190620000dd92919062000102565b5091602001919060010190620000bc565b5b509050620000fe919062000193565b5090565b828054620001109062000435565b90600052602060002090601f01602090048101928262000134576000855562000180565b82601f106200014f57805160ff191683800117855562000180565b8280016001018555821562000180579182015b828111156200017f57825182559160200191906001019062000162565b5b5090506200018f9190620001bb565b5090565b5b80821115620001b75760008181620001ad9190620001da565b5060010162000194565b5090565b5b80821115620001d6576000816000905550600101620001bc565b5090565b508054620001e89062000435565b6000825580601f10620001fc57506200021d565b601f0160209004906000526020600020908101906200021c9190620001bb565b5b50565b60006200023762000231846200039d565b62000369565b9050808382526020820190508260005b858110156200027b5781518501620002608882620002f7565b84526020840193506020830192505060018101905062000247565b5050509392505050565b60006200029c6200029684620003cc565b62000369565b905082815260208101848484011115620002b557600080fd5b620002c2848285620003ff565b509392505050565b600082601f830112620002dc57600080fd5b8151620002ee84826020860162000220565b91505092915050565b600082601f8301126200030957600080fd5b81516200031b84826020860162000285565b91505092915050565b6000602082840312156200033757600080fd5b600082015167ffffffffffffffff8111156200035257600080fd5b6200036084828501620002ca565b91505092915050565b6000604051905081810181811067ffffffffffffffff821117156200039357620003926200049a565b5b8060405250919050565b600067ffffffffffffffff821115620003bb57620003ba6200049a565b5b602082029050602081019050919050565b600067ffffffffffffffff821115620003ea57620003e96200049a565b5b601f19601f8301169050602081019050919050565b60005b838110156200041f57808201518184015260208101905062000402565b838111156200042f576000848401525b50505050565b600060028204905060018216806200044e57607f821691505b602082108114156200046557620004646200046b565b5b50919050565b7f4e487b7100000000000000000000000000000000000000000000000000000000600052602260045260246000fd5b7f4e487b7100000000000000000000000000000000000000000000000000000000600052604160045260246000fd5b6107e680620004d96000396000f3fe60806040526004361061003f5760003560e01c806315cc38ea146100445780637c711b271461004e5780638c639a851461008b5780638da5cb5b146100b6575b600080fd5b61004c6100e1565b005b34801561005a57600080fd5b50610075600480360381019061007091906103a4565b610277565b60405161008291906104ea565b60405180910390f35b34801561009757600080fd5b506100a0610323565b6040516100ad919061052c565b60405180910390f35b3480156100c257600080fd5b506100cb610329565b6040516100d891906104cf565b60405180910390f35b60006064600154346100f39190610594565b6100fd9190610563565b9050803411610141576040517f08c379a00000000000000000000000000000000000000000000000000000000081526004016101389061050c565b60405180910390fd5b600061015160028054905061034d565b905060006002828154811061018f577f4e487b7100000000000000000000000000000000000000000000000000000000600052603260045260246000fd5b9060005260206000200180546101a49061065d565b80601f01602080910402602001604051908101604052809291908181526020018280546101d09061065d565b801561021d5780601f106101f25761010080835404028352916020019161021d565b820191906000526020600020905b81548152906001019060200180831161020057829003601f168201915b505050505090503373ffffffffffffffffffffffffffffffffffffffff167fd45c1f75e8d08f913ec00169f3e4be2ded92648acec55458114bbbaac08e3f698260405161026a91906104ea565b60405180910390a2505050565b6002818154811061028757600080fd5b9060005260206000200160009150905080546102a29061065d565b80601f01602080910402602001604051908101604052809291908181526020018280546102ce9061065d565b801561031b5780601f106102f05761010080835404028352916020019161031b565b820191906000526020600020905b8154815290600101906020018083116102fe57829003601f168201915b505050505081565b60015481565b60008054906101000a900473ffffffffffffffffffffffffffffffffffffffff1681565b60008142443360405160200161036593929190610492565b6040516020818303038152906040528051906020012060001c61038891906106bd565b9050919050565b60008135905061039e81610799565b92915050565b6000602082840312156103b657600080fd5b60006103c48482850161038f565b91505092915050565b6103d6816105ee565b82525050565b6103ed6103e8826105ee565b61068f565b82525050565b60006103fe82610547565b6104088185610552565b935061041881856020860161062a565b6104218161077b565b840191505092915050565b6000610439601983610552565b91507f496e73756666696369656e74206665652070726f7669646564000000000000006000830152602082019050919050565b61047581610620565b82525050565b61048c61048782610620565b6106b3565b82525050565b600061049e828661047b565b6020820191506104ae828561047b565b6020820191506104be82846103dc565b601482019150819050949350505050565b60006020820190506104e460008301846103cd565b92915050565b6000602082019050818103600083015261050481846103f3565b905092915050565b600060208201905081810360008301526105258161042c565b9050919050565b6000602082019050610541600083018461046c565b92915050565b600081519050919050565b600082825260208201905092915050565b600061056e82610620565b915061057983610620565b9250826105895761058861071d565b5b828204905092915050565b600061059f82610620565b91506105aa83610620565b9250817fffffffffffffffffffffffffffffffffffffffffffffffffffffffffffffffff04831182151516156105e3576105e26106ee565b5b828202905092915050565b60006105f982610600565b9050919050565b600073ffffffffffffffffffffffffffffffffffffffff82169050919050565b6000819050919050565b60005b8381101561064857808201518184015260208101905061062d565b83811115610657576000848401525b50505050565b6000600282049050600182168061067557607f821691505b602082108114156106895761068861074c565b5b50919050565b600061069a826106a1565b9050919050565b60006106ac8261078c565b9050919050565b6000819050919050565b60006106c882610620565b91506106d383610620565b9250826106e3576106e261071d565b5b828206905092915050565b7f4e487b7100000000000000000000000000000000000000000000000000000000600052601160045260246000fd5b7f4e487b7100000000000000000000000000000000000000000000000000000000600052601260045260246000fd5b7f4e487b7100000000000000000000000000000000000000000000000000000000600052602260045260246000fd5b6000601f19601f8301169050919050565b60008160601b9050919050565b6107a281610620565b81146107ad57600080fd5b5056fea264697066735822122015504aba63bd7606c6040e950e28b8ec5f1981c522dc737722c81af480d39d5d64736f6c63430008000033",
  "linkReferences": {},
  "deployedLinkReferences": {}
}