{
  "_format": "hh-sol-artifact-1",
  "contractName": "NadVault",
  "sourceName": "contracts/NadVault.sol",
  "abi": [
    {
      "anonymous": false,
      "inputs": [
        {
          "indexed": true,
          "internalType": "uint256",
          "name": "lockId",
          "type": "uint256"
        },
        {
          "indexed": false,
          "internalType": "address",
          "name": "owner",
          "type": "address"
        },
        {
          "indexed": false,
          "internalType": "uint256",
          "name": "duration",
          "type": "uint256"
        },
        {
          "indexed": false,
          "internalType": "string",
          "name": "mediaHash",
          "type": "string"
        }
      ],
      "name": "MediaLocked",
      "type": "event"
    },
    {
      "inputs": [],
      "name": "feeRate",
      "outputs": [
        {
          "internalType": "uint256",
          "name": "",
          "type": "uint256"
        }
      ],
      "stateMutability": "view",
      "type": "function"
    },
    {
      "inputs": [],
      "name": "lockCount",
      "outputs": [
        {
          "internalType": "uint256",
          "name": "",
          "type": "uint256"
        }
      ],
      "stateMutability": "view",
      "type": "function"
    },
    {
      "inputs": [
        {
          "internalType": "string",
          "name": "mediaHash",
          "type": "string"
        },
        {
          "internalType": "uint256",
          "name": "durationInMonths",
          "type": "uint256"
        }
      ],
      "name": "lockMedia",
      "outputs": [],
      "stateMutability": "payable",
      "type": "function"
    },
    {
      "inputs": [
        {
          "internalType": "uint256",
          "name": "",
          "type": "uint256"
        }
      ],
      "name": "locks",
      "outputs": [
        {
          "internalType": "address",
          "name": "owner",
          "type": "address"
        },
        {
          "internalType": "string",
          "name": "mediaHash",
          "type": "string"
        },
        {
          "internalType": "uint256",
          "name": "lockTime",
          "type": "uint256"
        },
        {
          "internalType": "uint256",
          "name": "duration",
          "type": "uint256"
        },
        {
          "internalType": "uint256",
          "name": "feePaid",
          "type": "uint256"
        }
      ],
      "stateMutability": "view",
      "type": "function"
    },
    {
      "inputs": [
        {
          "internalType": "uint256",
          "name": "lockId",
          "type": "uint256"
        }
      ],
      "name": "withdrawMedia",
      "outputs": [],
      "stateMutability": "nonpayable",
      "type": "function"
    }
  ],
  "bytecode": "0x608060405267016345785d8a000060025534801561001c57600080fd5b50610c998061002c6000396000f3fe60806040526004361061004a5760003560e01c8063683ae5371461004f578063978bbdb91461006b5780639b10b6f514610096578063a2ca72c7146100c1578063f4dadc61146100ea575b600080fd5b61006960048036038101906100649190610782565b61012b565b005b34801561007757600080fd5b506100806102b1565b60405161008d91906107ed565b60405180910390f35b3480156100a257600080fd5b506100ab6102b7565b6040516100b891906107ed565b60405180910390f35b3480156100cd57600080fd5b506100e860048036038101906100e39190610808565b6102bd565b005b3480156100f657600080fd5b50610111600480360381019061010c9190610808565b610431565b6040516101229594939291906108fe565b60405180910390f35b60008160025461013b9190610987565b905080341015610180576040517f08c379a000000000000000000000000000000000000000000000000000000000815260040161017790610a2d565b60405180910390fd5b6040518060a001604052803373ffffffffffffffffffffffffffffffffffffffff16815260200184815260200142815260200183815260200134815250600080600154815260200190815260200160002060008201518160000160006101000a81548173ffffffffffffffffffffffffffffffffffffffff021916908373ffffffffffffffffffffffffffffffffffffffff160217905550602082015181600101908051906020019061023492919061050f565b506040820151816002015560608201518160030155608082015181600401559050506001547fcaaf34bded4b603d2b4c7bbaa55dd5e03deba09990d22162351c50467ea8778733848660405161028c93929190610a4d565b60405180910390a2600160008154809291906102a790610a8b565b9190505550505050565b60025481565b60015481565b600080600083815260200190815260200160002090508060000160009054906101000a900473ffffffffffffffffffffffffffffffffffffffff1673ffffffffffffffffffffffffffffffffffffffff163373ffffffffffffffffffffffffffffffffffffffff1614610365576040517f08c379a000000000000000000000000000000000000000000000000000000000815260040161035c90610b20565b60405180910390fd5b62278d0081600301546103789190610987565b81600201546103879190610b40565b4210156103c9576040517f08c379a00000000000000000000000000000000000000000000000000000000081526004016103c090610be2565b60405180910390fd5b600080838152602001908152602001600020600080820160006101000a81549073ffffffffffffffffffffffffffffffffffffffff02191690556001820160006104139190610595565b60028201600090556003820160009055600482016000905550505050565b60006020528060005260406000206000915090508060000160009054906101000a900473ffffffffffffffffffffffffffffffffffffffff169080600101805461047a90610c31565b80601f01602080910402602001604051908101604052809291908181526020018280546104a690610c31565b80156104f35780601f106104c8576101008083540402835291602001916104f3565b820191906000526020600020905b8154815290600101906020018083116104d657829003601f168201915b5050505050908060020154908060030154908060040154905085565b82805461051b90610c31565b90600052602060002090601f01602090048101928261053d5760008555610584565b82601f1061055657805160ff1916838001178555610584565b82800160010185558215610584579182015b82811115610583578251825591602001919060010190610568565b5b50905061059191906105d5565b5090565b5080546105a190610c31565b6000825580601f106105b357506105d2565b601f0160209004906000526020600020908101906105d191906105d5565b5b50565b5b808211156105ee5760008160009055506001016105d6565b5090565b6000604051905090565b600080fd5b600080fd5b600080fd5b600080fd5b6000601f19601f8301169050919050565b7f4e487b7100000000000000000000000000000000000000000000000000000000600052604160045260246000fd5b61065982610610565b810181811067ffffffffffffffff8211171561067857610677610621565b5b80604052505050565b600061068b6105f2565b90506106978282610650565b919050565b600067ffffffffffffffff8211156106b7576106b6610621565b5b6106c082610610565b9050602081019050919050565b82818337600083830152505050565b60006106ef6106ea8461069c565b610681565b90508281526020810184848401111561070b5761070a61060b565b5b6107168482856106cd565b509392505050565b600082601f83011261073357610732610606565b5b81356107438482602086016106dc565b91505092915050565b6000819050919050565b61075f8161074c565b811461076a57600080fd5b50565b60008135905061077c81610756565b92915050565b60008060408385031215610799576107986105fc565b5b600083013567ffffffffffffffff8111156107b7576107b6610601565b5b6107c38582860161071e565b92505060206107d48582860161076d565b9150509250929050565b6107e78161074c565b82525050565b600060208201905061080260008301846107de565b92915050565b60006020828403121561081e5761081d6105fc565b5b600061082c8482850161076d565b91505092915050565b600073ffffffffffffffffffffffffffffffffffffffff82169050919050565b600061086082610835565b9050919050565b61087081610855565b82525050565b600081519050919050565b600082825260208201905092915050565b60005b838110156108b0578082015181840152602081019050610895565b838111156108bf576000848401525b50505050565b60006108d082610876565b6108da8185610881565b93506108ea818560208601610892565b6108f381610610565b840191505092915050565b600060a0820190506109136000830188610867565b818103602083015261092581876108c5565b905061093460408301866107de565b61094160608301856107de565b61094e60808301846107de565b9695505050505050565b7f4e487b7100000000000000000000000000000000000000000000000000000000600052601160045260246000fd5b60006109928261074c565b915061099d8361074c565b9250817fffffffffffffffffffffffffffffffffffffffffffffffffffffffffffffffff04831182151516156109d6576109d5610958565b5b828202905092915050565b7f496e73756666696369656e74206665652070726f766964656400000000000000600082015250565b6000610a17601983610881565b9150610a22826109e1565b602082019050919050565b60006020820190508181036000830152610a4681610a0a565b9050919050565b6000606082019050610a626000830186610867565b610a6f60208301856107de565b8181036040830152610a8181846108c5565b9050949350505050565b6000610a968261074c565b91507fffffffffffffffffffffffffffffffffffffffffffffffffffffffffffffffff821415610ac957610ac8610958565b5b600182019050919050565b7f596f7520617265206e6f7420746865206f776e65720000000000000000000000600082015250565b6000610b0a601583610881565b9150610b1582610ad4565b602082019050919050565b60006020820190508181036000830152610b3981610afd565b9050919050565b6000610b4b8261074c565b9150610b568361074c565b9250827fffffffffffffffffffffffffffffffffffffffffffffffffffffffffffffffff03821115610b8b57610b8a610958565b5b828201905092915050565b7f4c6f636b20706572696f64206e6f742065787069726564000000000000000000600082015250565b6000610bcc601783610881565b9150610bd782610b96565b602082019050919050565b60006020820190508181036000830152610bfb81610bbf565b9050919050565b7f4e487b7100000000000000000000000000000000000000000000000000000000600052602260045260246000fd5b60006002820490506001821680610c4957607f821691505b60208210811415610c5d57610c5c610c02565b5b5091905056fea26469706673582212202155ca74bf5bd156677ccf8161903773abb54572d264570152ac9bb334fc8bcb64736f6c63430008090033",
  "linkReferences": {},
  "deployedLinkReferences": {}
}