{
  "_format": "hh-sol-artifact-1",
  "contractName": "NadVault",
  "sourceName": "contracts/NadVault.sol",
  "abi": [
    {
      "anonymous": false,
      "inputs": [
        {
          "indexed": true,
          "internalType": "uint256",
          "name": "lockId",
          "type": "uint256"
        },
        {
          "indexed": false,
          "internalType": "address",
          "name": "owner",
          "type": "address"
        },
        {
          "indexed": false,
          "internalType": "uint256",
          "name": "duration",
          "type": "uint256"
        },
        {
          "indexed": false,
          "internalType": "string",
          "name": "mediaHash",
          "type": "string"
        }
      ],
      "name": "MediaLocked",
      "type": "event"
    },
    {
      "inputs": [],
      "name": "feeRate",
      "outputs": [
        {
          "internalType": "uint256",
          "name": "",
          "type": "uint256"
        }
      ],
      "stateMutability": "view",
      "type": "function"
    },
    {
      "inputs": [],
      "name": "lockCount",
      "outputs": [
        {
          "internalType": "uint256",
          "name": "",
          "type": "uint256"
        }
      ],
      "stateMutability": "view",
      "type": "function"
    },
    {
      "inputs": [
        {
          "internalType": "string",
          "name": "mediaHash",
          "type": "string"
        },
        {
          "internalType": "uint256",
          "name": "durationInMonths",
          "type": "uint256"
        }
      ],
      "name": "lockMedia",
      "outputs": [],
      "stateMutability": "payable",
      "type": "function"
    },
    {
      "inputs": [
        {
          "internalType": "uint256",
          "name": "",
          "type": "uint256"
        }
      ],
      "name": "locks",
      "outputs": [
        {
          "internalType": "address",
          "name": "owner",
          "type": "address"
        },
        {
          "internalType": "string",
          "name": "mediaHash",
          "type": "string"
        },
        {
          "internalType": "uint256",
          "name": "lockTime",
          "type": "uint256"
        },
        {
          "internalType": "uint256",
          "name": "duration",
          "type": "uint256"
        },
        {
          "internalType": "uint256",
          "name": "feePaid",
          "type": "uint256"
        }
      ],
      "stateMutability": "view",
      "type": "function"
    },
    {
      "inputs": [
        {
          "internalType": "uint256",
          "name": "lockId",
          "type": "uint256"
        }
      ],
      "name": "withdrawMedia",
      "outputs": [],
      "stateMutability": "nonpayable",
      "type": "function"
    }
  ],
  "bytecode": "0x608060405267016345785d8a000060025534801561001c57600080fd5b50610c278061002c6000396000f3fe60806040526004361061004a5760003560e01c8063683ae5371461004f578063978bbdb91461006b5780639b10b6f514610096578063a2ca72c7146100c1578063f4dadc61146100ea575b600080fd5b6100696004803603810190610064919061066f565b61012b565b005b34801561007757600080fd5b506100806102b1565b60405161008d91906108fb565b60405180910390f35b3480156100a257600080fd5b506100ab6102b7565b6040516100b891906108fb565b60405180910390f35b3480156100cd57600080fd5b506100e860048036038101906100e391906106c3565b6102bd565b005b3480156100f657600080fd5b50610111600480360381019061010c91906106c3565b610431565b604051610122959493929190610803565b60405180910390f35b60008160025461013b91906109e9565b905080341015610180576040517f08c379a0000000000000000000000000000000000000000000000000000000008152600401610177906108db565b60405180910390fd5b6040518060a001604052803373ffffffffffffffffffffffffffffffffffffffff16815260200184815260200142815260200183815260200134815250600080600154815260200190815260200160002060008201518160000160006101000a81548173ffffffffffffffffffffffffffffffffffffffff021916908373ffffffffffffffffffffffffffffffffffffffff160217905550602082015181600101908051906020019061023492919061050f565b506040820151816002015560608201518160030155608082015181600401559050506001547fcaaf34bded4b603d2b4c7bbaa55dd5e03deba09990d22162351c50467ea8778733848660405161028c9392919061085d565b60405180910390a2600160008154809291906102a790610af3565b9190505550505050565b60025481565b60015481565b600080600083815260200190815260200160002090508060000160009054906101000a900473ffffffffffffffffffffffffffffffffffffffff1673ffffffffffffffffffffffffffffffffffffffff163373ffffffffffffffffffffffffffffffffffffffff1614610365576040517f08c379a000000000000000000000000000000000000000000000000000000000815260040161035c906108bb565b60405180910390fd5b62278d00816003015461037891906109e9565b81600201546103879190610993565b4210156103c9576040517f08c379a00000000000000000000000000000000000000000000000000000000081526004016103c09061089b565b60405180910390fd5b600080838152602001908152602001600020600080820160006101000a81549073ffffffffffffffffffffffffffffffffffffffff02191690556001820160006104139190610595565b60028201600090556003820160009055600482016000905550505050565b60006020528060005260406000206000915090508060000160009054906101000a900473ffffffffffffffffffffffffffffffffffffffff169080600101805461047a90610ac1565b80601f01602080910402602001604051908101604052809291908181526020018280546104a690610ac1565b80156104f35780601f106104c8576101008083540402835291602001916104f3565b820191906000526020600020905b8154815290600101906020018083116104d657829003601f168201915b5050505050908060020154908060030154908060040154905085565b82805461051b90610ac1565b90600052602060002090601f01602090048101928261053d5760008555610584565b82601f1061055657805160ff1916838001178555610584565b82800160010185558215610584579182015b82811115610583578251825591602001919060010190610568565b5b50905061059191906105d5565b5090565b5080546105a190610ac1565b6000825580601f106105b357506105d2565b601f0160209004906000526020600020908101906105d191906105d5565b5b50565b5b808211156105ee5760008160009055506001016105d6565b5090565b600061060561060084610947565b610916565b90508281526020810184848401111561061d57600080fd5b610628848285610a7f565b509392505050565b600082601f83011261064157600080fd5b81356106518482602086016105f2565b91505092915050565b60008135905061066981610bda565b92915050565b6000806040838503121561068257600080fd5b600083013567ffffffffffffffff81111561069c57600080fd5b6106a885828601610630565b92505060206106b98582860161065a565b9150509250929050565b6000602082840312156106d557600080fd5b60006106e38482850161065a565b91505092915050565b6106f581610a43565b82525050565b600061070682610977565b6107108185610982565b9350610720818560208601610a8e565b61072981610bc9565b840191505092915050565b6000610741601783610982565b91507f4c6f636b20706572696f64206e6f7420657870697265640000000000000000006000830152602082019050919050565b6000610781601583610982565b91507f596f7520617265206e6f7420746865206f776e657200000000000000000000006000830152602082019050919050565b60006107c1601983610982565b91507f496e73756666696369656e74206665652070726f7669646564000000000000006000830152602082019050919050565b6107fd81610a75565b82525050565b600060a08201905061081860008301886106ec565b818103602083015261082a81876106fb565b905061083960408301866107f4565b61084660608301856107f4565b61085360808301846107f4565b9695505050505050565b600060608201905061087260008301866106ec565b61087f60208301856107f4565b818103604083015261089181846106fb565b9050949350505050565b600060208201905081810360008301526108b481610734565b9050919050565b600060208201905081810360008301526108d481610774565b9050919050565b600060208201905081810360008301526108f4816107b4565b9050919050565b600060208201905061091060008301846107f4565b92915050565b6000604051905081810181811067ffffffffffffffff8211171561093d5761093c610b9a565b5b8060405250919050565b600067ffffffffffffffff82111561096257610961610b9a565b5b601f19601f8301169050602081019050919050565b600081519050919050565b600082825260208201905092915050565b600061099e82610a75565b91506109a983610a75565b9250827fffffffffffffffffffffffffffffffffffffffffffffffffffffffffffffffff038211156109de576109dd610b3c565b5b828201905092915050565b60006109f482610a75565b91506109ff83610a75565b9250817fffffffffffffffffffffffffffffffffffffffffffffffffffffffffffffffff0483118215151615610a3857610a37610b3c565b5b828202905092915050565b6000610a4e82610a55565b9050919050565b600073ffffffffffffffffffffffffffffffffffffffff82169050919050565b6000819050919050565b82818337600083830152505050565b60005b83811015610aac578082015181840152602081019050610a91565b83811115610abb576000848401525b50505050565b60006002820490506001821680610ad957607f821691505b60208210811415610aed57610aec610b6b565b5b50919050565b6000610afe82610a75565b91507fffffffffffffffffffffffffffffffffffffffffffffffffffffffffffffffff821415610b3157610b30610b3c565b5b600182019050919050565b7f4e487b7100000000000000000000000000000000000000000000000000000000600052601160045260246000fd5b7f4e487b7100000000000000000000000000000000000000000000000000000000600052602260045260246000fd5b7f4e487b7100000000000000000000000000000000000000000000000000000000600052604160045260246000fd5b6000601f19601f8301169050919050565b610be381610a75565b8114610bee57600080fd5b5056fea264697066735822122035d96d1d167c768114bc97f5fa1ae45a329de0c6648620c500bb26ec6160780064736f6c63430008000033",
  "linkReferences": {},
  "deployedLinkReferences": {}
}